S00D000045453331312E73726563F8
S113000012C021C020C091C09EC01DC01DC030C000
S11300101AC019C018C017C016C015C014C013C028
S113002012C011C010C011241FBECFE5D4E0DEBF42
S1130030CDBF20E0A0E6B0E001C01D92A436B20717
S1130040E1F7A9D0E1C0DCCF1F920F920FB60F9257
S113005011248F9385B5887F85BDC298C19A9798DE
S1130060C09A14BC8F910F900FBE0F901F901895DB
S11300701F920F920FB60F9211248F939F9380912A
S1130080620090916300892BE1F48EB5887F8EBD68
S113009085B5887F85BD1DBC1CBC14BC8EB5846031
S11300A08EBD8EB58C7F8EBD85B5866085BD85B5CC
S11300B08E7F85BD81E090E0909363008093620021
S11300C019C08EB5887F8EBD85B5887F85BD1DBC62
S11300D01CBC14BC8EB584608EBD8EB58C7F8EBD69
S11300E085B5866085BD85B58E7F85BD109263001C
S11300F0109262008091600090916100C29729F48F
S1130100109261001092600009C08091600090918B
S11301106100019690936100809360009F918F919C
S11301200F900FBE0F901F9018951F920F920FB64D
S11301300F921124C298C19A9798C09A0F900FBE3B
S11301400F901F9018951F920F920FB60F921124C3
S11301508F939F938091600090916100C29781F08A
S11301608091620090916300892B29F0C298C19814
S1130170979AC09A09C0C29AC19A9798C09804C025
S1130180C298C19A9798C09A9F918F910F900FBE71
S11301900F901F90189587B3876087BB8F9A85B59A
S11301A08F7B85BD85B5877F85BD85B58F7C85BDF6
S11301B08FEF83BD85B5866085BD85B58E7F85BD92
S11301C0C298C1989798C0988EB5877E8EBD8FB51A
S11301D08C7F8FBD8EB584608EBD8EB58C7F8EBDB9
S11301E082EE94E09BBD8ABD84EC99E099BD88BD04
S11301F089B7806C89BF89B7886189BF1092630011
S10F0200109262007894FFCFF894FFCFB6
S9030000FC
