:1000000012C02CC02BC0A8C1D4C128C0ABC0F8C03E
:1000100025C091C023C05EC021C020C01FC01EC02B
:100020001DC01CC01BC011241FBECFE5D4E0DEBF25
:10003000CDBF10E0A0E6B0E0E0E7FBE102C0059034
:100040000D92AC38B107D9F722E0ACE8B0E001C0BE
:100050001D92A936B207E1F7E7D188CDD1CF97B18C
:10006000907F97B997B1892B87B9369A349BFECF89
:1000700084B195B10895A091AC00B091AD009C0100
:1000800054D92AE096958795779567952A95D1F763
:10009000089587B18E6087B9369A349BFECF24B11C
:1000A00035B140E050E060E070E584E190E01BD9BC
:1000B0003093AD002093AC0008953F983E9A379A54
:1000C00086B1876086B988E893E19093AD0080930C
:1000D000AC00DFCF1F920F920FB60F921124CF9377
:1000E000DF9300D0CDB7DEB761E070E081E090E053
:1000F00087D98C019093BF008093BE00DDD6F801B4
:10010000808301E010E00F5F1F4FB8018091BE00B7
:100110009091BF00B0DA9093BF008093BE00CCD620
:1001200089831A82BE016F5F7F4F8091BE009091DC
:10013000BF008DDCE8CF1F920F920FB60F921124F3
:100140008F939F938091C6009091C70001969093E2
:10015000C7008093C6009F918F910F900FBE0F90A4
:100160001F9018951F920F920FB60F9211248F9324
:100170009F9385B5887F85BD1092B5001092B4001D
:100180001092C1001092C0001092A9001092A80015
:100190008091BA009091BB00C298892B71F4C198EC
:1001A0009798C09A81E090E09093B1008093B0005E
:1001B0009093AB008093AA000DC0C19A9798C09805
:1001C00081E090E09093B1008093B0009093B300F1
:1001D0008093B2001092B7001092B6001092C30044
:1001E0001092C20083B7846083BF83B78C7F83BFC4
:1001F00014BC9F918F910F900FBE0F901F90189578
:100200001F920F920FB60F9211242F933F938F934B
:100210009F931092AB001092AA001092B30010921C
:10022000B2008091A6009091A7008091BA009091B1
:10023000BB00892B39F11092BB001092BA008EB529
:10024000887F8EBD85B5887F85BD1DBC1CBC14BC58
:100250008EB584608EBD8EB58C7F8EBD8091BA00C8
:100260009091BB00892B39F0C298C198979AC09A97
:1002700081E090E026C0C29AC19A9798C09881E028
:1002800090E034C081E090E09093BB008093BA008E
:100290002EB5287F2EBD25B5287F25BD1DBC1CBCD5
:1002A00014BC2EB524602EBD2EB52C7F2EBD209102
:1002B000BA003091BB00232BA9F0C298C198979A3D
:1002C000C09A9093B1008093B0009093AF00809358
:1002D000AE009093A9008093A8009093B5008093FE
:1002E000B40014C0C29AC19A9798C0989093B10074
:1002F0008093B0009093AF008093AE009093A900DC
:100300008093A8009093C1008093C00085B586605B
:1003100085BD85B58E7F85BD83B7887F83BF12BEBF
:100320001092C7001092C6008091A6009091A7007D
:10033000C29749F08091A6009091A70001969093F2
:10034000A7008093A6009F918F913F912F910F90CE
:100350000FBE0F901F9018951F920F920FB60F921D
:1003600011248F939F9385B5887F85BD8091BA00B6
:100370009091BB00C298892B41F0C1989798C09A80
:100380001092B5001092B40007C0C19A9798C09817
:100390001092C1001092C00085B5866085BD85B5FC
:1003A0008E7F85BD9F918F910F900FBE0F901F90F4
:1003B00018951F920F920FB60F9211248F939F934F
:1003C00085B5887F85BD15BC8091BA009091BB0032
:1003D000892B79F0C298C198979AC09A81E090E0F1
:1003E0009093B1008093B0009093B5008093B400D7
:1003F0000EC0C29AC19A9798C09881E090E09093FD
:10040000B1008093B0009093C1008093C00085B587
:10041000866085BD85B58E7F85BD9F918F910F903C
:100420000FBE0F901F901895CF93DF93CDB7DEB717
:10043000AA970FB6F894DEBF0FBECDBF1092BB00D7
:100440001092BA001092B9001092B8001092C50034
:100450001092C4001092C7001092C6001092BD0006
:100460001092BC001092C3001092C2001092B10012
:100470001092B0001092AF001092AE001092A9003E
:100480001092A8001092A7001092A60088E893E1AD
:100490009093AD008093AC0087B3876087BB8F9A41
:1004A00085B58F7B85BD85B5877F85BD85B58F7CFF
:1004B00085BD80E890E0909362028093610280E8BD
:1004C00083BD85B5866085BD85B58E7F85BDC298A7
:1004D000C19A9798C09A8EB5877E8EBD8FB58C7F56
:1004E0008FBD8EB584608EBD8EB58C7F8EBD8EE740
:1004F00094E09BBD8ABD8CEF98E099BD88BD89B71B
:10050000806C89BF89B7886189BF89B7816089BFDD
:100510001092BB001092BA00BAD4CFDD78949E013D
:100520002F5F3F4F388F2F8BAE01475F5F4F5A8F42
:10053000498F88248394912C02E3402E512C82E031
:10054000682E712C92EE292E94E0392E23B58091DD
:1005500061029091620230E02817390710F48F5F32
:1005600006C023B530E08217930710F4815083BD95
:100570008091C4009091C500892B09F4C1C08BE71C
:1005800090E09E8B8D8B84E190E054D78C017C01B0
:100590005C0194E1A90EB11C68018AE090E04AD7A1
:1005A000D6018D939D936D01AA15BB05B1F7BE01D0
:1005B0006B5E7F4F8091BE009091BF0034DAF801EE
:1005C00091838083F701819191917F01892B51F073
:1005D000BE016B5E7F4F80E090E025DAD7018D93FE
:1005E0009C93F0CFD801ED91FC91119781818333D9
:1005F00009F077C01296ED91FC911397319683E044
:10060000DE01519601900D928A95E1F71C8A64E80B
:1006100070E0CE01419631DA892B09F062C0F80111
:10062000E480F580F701319683E0DE011D960190AC
:100630000D928A95E1F7188A68E870E0CE010D9670
:100640001CDA892B09F04DC0F701389687E0DE01EE
:10065000119601900D928A95E1F7188662E270E09A
:10066000CE010196FFD97C012F89388DE21AF30A59
:10067000A701BE016F5F7F4FCE010996D8D9E9E08F
:10068000F0E0EC0FFD1FEE0DFF1D10828985882321
:1006900041F1FE01399680E090E09F01498D5A8D2D
:1006A000241B350B2E153F0534F421912033A9F37B
:1006B00081E090E0F2CF019781F44AE050E060E001
:1006C00070E0CE01099696D86F3F710509F048F4A5
:1006D000709362026093610204C0109262021092F1
:1006E00061021092C5001092C4009092A300809203
:1006F000A2008091BE009091BF0034D7C80132D7CC
:100700008091A2009091A300892B41F054985D9BA9
:10071000FECF549A1092A3001092A20080E3C8D397
:100720008091A6009091A700C29708F469C28091B9
:10073000B0009091B100892B09F462C28091B6009B
:100740009091B700892B09F06CC18091AA0090911B
:10075000AB00892B09F4AFC083B7887F83BF82B712
:100760000091C6001091C700102F0027080F111D1F
:100770000093740010937500109276001092770029
:10078000109278001092790010927A0010927B00FB
:1007900083B7846083BF83B78C7F83BF80E05FDCD7
:1007A0006ADC7093A5006093A4002091C200309190
:1007B000C30023303105C0F07092C3006092C200C4
:1007C0002091CD003091CE003093CC002093CB000F
:1007D0002091CF003091D0003093CE002093CD00F7
:1007E0001092D0001092CF00E091C200F091C300AF
:1007F000EE0FFF1FE553FF4F718360838091C200AE
:100800009091C300039748F48091C2009091C30077
:1008100001969093C3008093C2008091C200909192
:10082000C300039709F0ECC18091CF009091D000F4
:100830002091CD003091CE00821B930B0A9708F0D7
:10084000DFC19092B7008092B60083B7887F83BFE4
:1008500012BE1092C7001092C600A0907400B09013
:100860007500C0907600D0907700E0907800F0900E
:10087000790000917A0010917B0020E03AEC4AE97F
:100880005BE360E070E080E090E067D520937C005F
:1008900030937D0040937E0050937F0060938000F2
:1008A0007093810080938200909383001092AB003C
:1008B0001092AA00A5C18091B2009091B300892B3B
:1008C00009F49EC183B7887F83BF82B70091C600B9
:1008D0001091C700102F0027080F111D00937400FE
:1008E00010937500109276001092770010927800A5
:1008F0001092790010927A0010927B0083B7846086
:1009000083BF83B78C7F83BF81E0A9DBB4DB7093A7
:10091000A5006093A4002091C2003091C300233051
:100920003105C0F07092C3006092C2002091CD00EA
:100930003091CE003093CC002093CB002091CF009B
:100940003091D0003093CE002093CD001092D00093
:100950001092CF00E091C200F091C300EE0FFF1F94
:10096000E553FF4F718360838091C2009091C30073
:10097000039748F48091C2009091C3000196909330
:10098000C3008093C2008091C2009091C30003977E
:1009900009F036C18091CF009091D0002091CD0018
:1009A0003091CE00821B930B0A9708F029C19092D8
:1009B000B7008092B60083B7887F83BF12BE1092C3
:1009C000C7001092C600A0907400B0907500C0904F
:1009D0007600D0907700E0907800F0907900009158
:1009E0007A0010917B0020E03AEC4AE95BE360E09A
:1009F00070E080E090E0B1D420937C0030937D00E3
:100A000040937E0050937F0060938000709381003C
:100A100080938200909383001092B3001092B200F2
:100A2000EFC08091AE009091AF00892B41F1809191
:100A3000C0009091C100892B11F080E007C0809127
:100A4000B4009091B500892BB1F081E008DB13DB95
:100A50007093A5006093A4006C5D710980E090E044
:100A600095D223EE37EC4CE250E444D363D270933A
:100A7000A1006093A0001092AF001092AE00809190
:100A8000A8009091A900892B09F4BAC08091BC00FC
:100A90009091BD00C29709F4B3C08091C0009091BD
:100AA000C100892B39F48091B4009091B500892B55
:100AB00009F46DC082E0D3DADEDA5B016C017B0100
:100AC0007093A5006093A4008091BC009091BD003C
:100AD000B201F5D3892B09F08AC00091C8001091AA
:100AE000C900000F111F000F111F07561E4F5CEDAC
:100AF000A51AB108B50180E090E048D22AEA30E6B4
:100B000044E55EE3F7D220E030E040E251E4F2D287
:100B100011D2D8016D937D938D939C931397E0919F
:100B2000C800F091C9008091C8009091C900EE0FF3
:100B3000FF1FEE0FFF1F8F010F521F4F880F991FCE
:100B4000880F991F87569E4FA091A000B091A100D9
:100B5000FC012081318142815381F3D3D8016D930F
:100B60007D938D939C9313978091C8009091C900B9
:100B700001969093C9008093C800B9EBEB16BBE0D7
:100B8000FB06A8F190929F0080929E0030C082E008
:100B900066DA71DA8091BC009091BD00B2018FD30A
:100BA000892B29F5E091C800F091C900EE0FFF1FD5
:100BB000EE0FFF1FE756FE4F108211821282138242
:100BC000E091C800F091C900EE0FFF1FEE0FFF1F6C
:100BD000EF52FF4F10821182128213828091C8005F
:100BE0009091C90001969093C9008093C8008091AC
:100BF000BC009091BD0001969093BD008093BC0015
:100C00008091B6009091B700892B99F02CB53DB535
:100C10008AB59BB52817390760F41092B700109277
:100C2000B6003BBC2ABC8AB59BB5880F991F99BDFD
:100C300088BD8091C8009091C900C29709F086CC08
:100C4000E0918E00E9A3F0918F00FAA3209190002B
:100C50002BA3309191003CA3409192004DA3509161
:100C600093005EA3809194008FA39091950098A724
:100C700060909600709097008090980090909900F6
:100C800030909A0020909B0040909C0050909D00D6
:100C9000A9E9B1E0BC8FAB8FE1EDF0E0FAA7E9A7DD
:100CA000AB8DBC8D6D917D918D919C916FD1C7D293
:100CB00041D16D8F7E8F8F8F98A3EB8DFC8D6193CB
:100CC000719381939193FC8FEB8FE9A5FAA58191A4
:100CD0009191A191B191FAA7E9A75C016D019C01E5
:100CE000A60160E070E080E090E0A9A0BAA0CBA0EF
:100CF000DCA0EDA0FEA00FA118A579D329A33AA3EB
:100D00004BA35CA36DA37EA38FA398A72D8D3E8DCF
:100D10004F8D58A159016A01A60160E070E080E0A2
:100D200090E053016401E32CF22C820160D339017D
:100D30004A01362E272E2C0141E652E08B8D9C8DE8
:100D40004817590709F0ACCF82E3A82EB12CC12C6B
:100D5000D12CE12CF12C00E010E09301A401632DD3
:100D6000722DC201FAD24FD12CD2AFD02B8F3D8F32
:100D700020939600309397004093980050939900E9
:100D800060939A0070939B0080939C0090939D00C9
:100D900090E5A92E23ECB22E29A13AA14BA15CA18A
:100DA0006DA17EA18FA198A5D8D219012A013B017E
:100DB0004C0120938E0030928F004093900050920F
:100DC00091006093920070929300809394009092AF
:100DD00095008091A0009091A10068EE73E06FD221
:100DE0007093690060936800909367008093660039
:100DF00020917C0030917D0040917E0050917F00D9
:100E000060918000709181008091820090918300B8
:100E1000FAD020E030E040E85EE36CD18BD028EEE1
:100E200033E040E050E05FD230936F0020936E00DB
:100E300070936D0060936C009B8D8D8D90936A0014
:100E400080936B0030E8A32E40EFB42E5AEFC52EEE
:100E500062E0D62E29A13AA14BA15CA16DA17EA191
:100E60008FA198A57AD2309373002093720078EE08
:100E7000A72EE3E0BE2EC12CD12C9101A201B3011B
:100E8000C40169D2309371002093700052CB8AB1B3
:100E900088618AB9579A10BC87E689B980B5866897
:100EA00080BD80B58F7B80BD80B58B7F80BD089570
:100EB0005D9BFECF8CB908955F9BFECF8CB10895EA
:100EC000BEE304D008F490E80895BFE32227332757
:100ED000A901EFD058F19F5740F1B91738F1BFE39E
:100EE000B91B9927B8503AF4660F771F881F991FCE
:100EF000B395D2F316C0B8504AF0232F342F452FA4
:100F0000562F672F782F8827B850BAF7B85F49F067
:100F10008695779567955795479537952795BA950F
:100F2000B9F70EF4AED088940895889460E070E02C
:100F3000CB010895BED088F09F5790F0B92F992724
:100F4000B751A0F0D1F0660F771F881F991F1AF0D4
:100F5000BA95C9F712C0B13081F0C5D0B1E008959B
:100F6000C2C0672F782F8827B85F39F0B93FCCF31C
:100F7000869577956795B395D9F73EF490958095CA
:100F8000709561957F4F8F4F9F4F0895E89409C0EA
:100F900097FB3EF490958095709561957F4F8F4FAC
:100FA0009F4F9923A9F0F92F96E9BB279395F695C2
:100FB000879577956795B795F111F8CFFAF4BB0F40
:100FC00011F460FF1BC06F5F7F4F8F4F9F4F16C0A4
:100FD000882311F096E911C0772321F09EE8872F2E
:100FE000762F05C0662371F096E8862F70E060E0EA
:100FF0002AF09A95660F771F881FDAF7880F969563
:10100000879597F90895E894F92F96EBFF2381F0DF
:10101000121613061406440B9395F695879577954B
:10102000679557954040FF23B9F71BC0992708954E
:10103000882351F49850D2F7872B762F652F542FA1
:10104000432F322F20E0B1F3121613061406440B7F
:1010500088233AF09A95440F551F661F771F881F03
:10106000CAF755234AF4440F551F11F460FF04C01A
:101070006F5F7F4F8F4F9F4F880F9695879597F99A
:101080000895909580957095609550954095309510
:1010900021953F4F4F4F5F4F6F4F7F4F8F4F9F4F68
:1010A000089557FD9058440F551F59F05F3F71F058
:1010B0004795880F97FB991F61F09F3F79F08795BF
:1010C0000895121613061406551FF2CF4695F1DF48
:1010D00008C0161617061806991FF1CF86957105D8
:1010E000610508940895E894BB2766277727CB010C
:1010F00097F908950BD0D2C0C3D028F0C8D018F00B
:10110000952309F09FC0B2C01124EECFCADFA0F32F
:10111000959FD1F3950F50E0551F629FF001729F8C
:10112000BB27F00DB11D639FAA27F00DB11DAA1FAB
:10113000649F6627B00DA11D661F829F2227B00DF8
:10114000A11D621F739FB00DA11D621F839FA00D83
:10115000611D221F749F3327A00D611D231F849FD3
:10116000600D211D822F762F6A2F11249F5750402A
:101170008AF0E1F088234AF0EE0FFF1FBB1F661FC5
:10118000771F881F91505040A9F79E3F510570F07E
:1011900059C0AACF5F3FECF3983EDCF38695779574
:1011A0006795B795F795E7959F5FC1F7FE2B880F79
:1011B000911D9695879597F9089511F40EF456C0F0
:1011C00047C077DFD0F39923D9F3CEF39F57550B60
:1011D00087FF4FD00024A0E640EA90018058569542
:1011E000979528F4805C660F771F881F20F02617DC
:1011F0003707480730F4621B730B840B2029312911
:101200004A2BA69517940794202531254A2758F78D
:10121000660F771F881F20F026173707480730F41E
:10122000620B730B840B200D311D411DA09581F7BE
:10123000B901842F9158880F9695879508959B0141
:10124000AC0158CF97F99F6780E870E060E008959F
:101250009F3F31F0915020F4879577956795B7952A
:10126000880F911D9695879597F908959FEF80ECCB
:10127000089591505040660F771F881FD2F7089548
:1012800000240A9416161706180609060895002465
:101290000A9412161306140605060895092E0394DF
:1012A000000C11F4882352F0BB0F40F4BF2B11F453
:1012B00060FF04C06F5F7F4F8F4F9F4F0895AA1B41
:1012C000BB1B51E107C0AA1FBB1FA617B70710F031
:1012D000A61BB70B881F991F5A95A9F78095909563
:1012E000BC01CD010895A1E21A2EAA1BBB1BFD0172
:1012F0000DC0AA1FBB1FEE1FFF1FA217B307E407F5
:10130000F50720F0A21BB30BE40BF50B661F771F4C
:10131000881F991F1A9469F760957095809590952C
:101320009B01AC01BD01CF010895A29FB001B39F05
:10133000C001A39F01D0B29F700D811D1124911D8A
:101340000895F3DFA59F900DB49F900DA49F800D8D
:10135000911D11240895689401C0E8948F929F9282
:10136000CF93DF9305D0DF91CF919F908F90089519
:1013700088249924F401E401B0E41B2ED4019D15C6
:101380008E049F04E007F10738F4FC014B01CA0109
:10139000B901AD019E011694220F331F441F551F42
:1013A000661F771F881F991F881C991CEE1FFF1F3F
:1013B000CC1FDD1FAA1FBB1F8A149B04EC05FD0573
:1013C000CE05DF05A007B10748F08A189B08EC0995
:1013D000FD09CE09DF09A00BB10B21601A94E1F6DB
:1013E0002EF49401AF01BE01CD01000C08952A0D29
:1013F0003B1D4C1D5D1D6E1D7F1D801F911F08959F
:101400000F931F93CF93DF93869F8001879F100DCB
:10141000969F100D1124C8010DD0EC01009721F00A
:10142000A80160E070E00CD3CE01DF91CF911F9155
:101430000F9108950F931F93CF93DF9382309105FF
:1014400010F482E090E0E0916502F091660220E005
:1014500030E0A0E0B0E0309719F140815181028185
:10146000138148175907C8F08417950769F4109736
:1014700031F012960C93129713961C9327C0009389
:1014800065021093660222C02115310519F042173A
:10149000530718F49A01BD01EF01DF01F801DBCF1A
:1014A00021153105F9F0281B390B2430310580F462
:1014B0008A819B816115710521F0FB0193838283F1
:1014C00004C09093660280936502FE01329644C088
:1014D000FE01E20FF31F819391932250310939836A
:1014E00028833AC02091630230916402232B41F497
:1014F0002091620030916300309364022093630274
:1015000020916000309161002115310541F42DB723
:101510003EB74091640050916500241B350BE0916B
:101520006302F0916402E217F307A0F42E1B3F0B55
:101530002817390778F0AC014E5F5F4F2417350745
:1015400048F04E0F5F1F50936402409363028193F3
:10155000919302C0E0E0F0E0CF01DF91CF911F91C5
:101560000F910895CF93DF93009709F481C0FC0198
:10157000329713821282A0916502B0916602109791
:1015800081F420813181820F931F20916302309179
:1015900064022817390751F5F0936402E09363025F
:1015A00067C0ED0120E030E0CE17DF0740F44A814C
:1015B0005B819E0141155105F1F0EA01F5CFD3831E
:1015C000C28340815181840F951FC817D90759F4F0
:1015D00088819981840F951F0296918380838A81E7
:1015E0009B81938382832115310529F4F093660250
:1015F000E09365023DC0E901FB83EA83499159917B
:10160000C40FD51FEC17FD0761F480819181840F11
:10161000951F0296E90199838883828193819B8338
:101620008A83E0E0F0E012968D919C9113970097E9
:1016300019F0FD01DC01F7CF8D919C9111979D016F
:101640002E5F3F4F820F931F2091630230916402FF
:101650002817390769F4309729F41092660210921E
:10166000650202C013821282B0936402A0936302E7
:10167000DF91CF910895A0E0B0E0E0E4FBE043C249
:10168000EC01009719F4CB01D5DEB0C0FC01E60FE8
:10169000F71F9C0122503109E217F30708F4A4C098
:1016A000D9010D911C91119706171707A8F0053065
:1016B000110508F497C0C80104978617970708F426
:1016C00091C002501109061B170B019311936D93E2
:1016D0007C93CF0147DF86C05B01A01AB10A4C01A1
:1016E000800E911EA0916502B0916602612C712C52
:1016F000E12CF12C109709F446C08D919C91119723
:10170000A815B905B1F56C0142E0C40ED11CCA148C
:10171000DB0478F14C018A189B08640142E0C40E96
:10172000D11C1296BC9012971396AC91B5E0CB16D3
:10173000D10440F0B282A38391828082D9016D935B
:101740007C9309C00E5F1F4F800F911FF901918399
:101750008083EB2DFA2FE114F10431F0D7011396B9
:10176000FC93EE9312973EC0F0936602E0936502FD
:1017700039C06816790608F43C017D0112960D9077
:10178000BC91A02DB7CF809163029091640288161E
:101790009906E1F466167706C8F48091600090918E
:1017A0006100009741F48DB79EB74091640050915D
:1017B0006500841B950BE817F907B0F4F0936402F9
:1017C000E0936302F901718360830CC0CB0132DEC8
:1017D0007C01009749F0A801BE0129D1CE01C2DEEB
:1017E000C70104C0CE0102C080E090E0CDB7DEB7F3
:1017F000EEE0A5C1A0E0B0E0EFEFFBE081C15C014D
:101800006B017A016115710519F0FB0191838083E9
:10181000E114F10429F0C7010297839708F0E2C0B0
:10182000E5012196F5011081812F90E0F4D0892BFC
:1018300011F05E01F5CF1D3229F42196F5011181D9
:1018400001E007C01B3221F4E5012296F501118168
:1018500000E0E114F10409F1F0E1EF16F10429F4DC
:101860003EC010E3E114F10421F128E0E216F10496
:1018700001F154F4E2E0EE16F10421F5812C912CF3
:10188000A12CB0E4BB2E3DC0FAE0EF16F10439F014
:1018900020E1E216F104B1F42FC0103311F1FAE0A7
:1018A000EF2EF12CACEC8A2E982CA82CACE0BA2EA2
:1018B00028C078E0E72EF12C812C912CA12CE0E1BE
:1018C000BE2E1FC060E070E080E090E897010F2C12
:1018D000000C440B550B07DD49015A0112C01033AF
:1018E00059F488818F7D883509F0BBCF1981229604
:1018F000026080E1E82EF12C812C912CA12C68E073
:10190000B62E40E060E070E0CB0127010F2C000C08
:1019100066087708FE0150ED352E310E29E02315BB
:1019200070F42FEB210F2A3118F439EC332E06C056
:101930002FE9210F2A3110F529EA322E310E232DFD
:1019400030E02E153F05D4F447FD15C086169706E6
:10195000A806B90668F0A3019201C2D0630D711DFB
:10196000811D911D61307105810520E8920710F0FD
:101970004FEF01C041E021961081CCCF202F217084
:10198000C114D10471F0442329F02197F601D183C9
:10199000C08307C001FF19C02297F601D183C0831D
:1019A00014C047FF12C0222329F060E070E080E0FD
:1019B00090E804C06FEF7FEF8FEF9FE722E230E007
:1019C000309368022093670209C0222381F090952A
:1019D0008095709561957F4F8F4F9F4F462F372F82
:1019E000282F12C040E030E020E090E00DC097FFCB
:1019F000F5CF82E290E090936802809367026FEFE8
:101A00007FEF8FEF9FE7EACF642F732F822FCDB741
:101A1000DEB7E1E191C0911160C0803219F08950C8
:101A20008550D0F708954CE850E030D00895FB0180
:101A3000DC0102C001900D9241505040D8F708954A
:101A4000DC0101C06D9341505040E0F70895FB0167
:101A5000DC010D900020E9F7119701900D92002014
:101A6000E1F70895FC018191861721F08823D9F7C9
:101A7000992708953197CF010895FB01DC018D91DD
:101A8000019080190110D9F3990B0895FA01A191E1
:101A9000B081009719F41097E1F0CD01DC01CD0180
:101AA0000D90002011F4C00113C0FB0121912223ED
:101AB00019F02015D9F7F3CFFB012191201519F466
:101AC0001E92119606C02223C1F70D900020A1F7A7
:101AD000D001FA01A193B08308959927882708952A
:101AE000DB018F939F932DDCBF91AF91A29F800D5F
:101AF000911DA39F900DB29F900D112408952F92D8
:101B00003F924F925F926F927F928F929F92AF928D
:101B1000BF92CF92DF92EF92FF920F931F93CF93DA
:101B2000DF93CDB7DEB7CA1BDB0B0FB6F894DEBF71
:101B30000FBECDBF09942A88398848885F846E8497
:101B40007D848C849B84AA84B984C884DF80EE80E1
:101B5000FD800C811B81AA81B981CE0FD11D0FB6EA
:101B6000F894DEBF0FBECDBFED010895F894FFCF0E
:101B700000006902200015000C00B00405000C00F4
:101B800026000100204E00000000000050C30000AD
:0C1B9000000000006D66630072657100CB
:00000001FF
