S00D000045453331312E73726563F8
S113000012C02CC02BC04DC17AC128C059C099C0A0
S113001025C024C023C023C021C020C01FC01EC0CF
S11300201DC01CC01BC011241FBECFE5D4E0DEBF21
S1130030CDBF11E0A0E6B0E0EEE0F5E102C005902E
S11300400D92AC34B107D9F721E0ACE4B1E001C0C2
S11300501D92A137B207E1F785D157CAD1CF1F92BC
S11300600F920FB60F921124CF93DF9300D0CDB728
S1130070DEB761E070E081E090E0E6D38C0190931C
S1130080630180936201AFD3F801808301E010E043
S11300900F5F1F4FB80180916201909163010FD5EA
S11300A090936301809362019ED389831A82BE0177
S11300B06F5F7F4F8091620190916301ECD6E8CF2E
S11300C01F920F920FB60F9211248F939F9385B5B1
S11300D0887F85BD10925D0110925C0110926501CC
S11300E010926401109251011092500180916001AC
S11300F090916101892B79F4C298C1989798C09A1C
S113010081E090E0909359018093580190935301BA
S1130110809352010EC0C298C19A9798C09881E00A
S113012090E0909359018093580190935B018093E0
S11301305A0114BC9F918F910F900FBE0F901F9086
S113014018951F920F920FB60F9211248F939F93BD
S11301508091600190916101892B09F44DC0109246
S11301606101109260018EB5887F8EBD85B5887F50
S113017085BD1DBC1CBC14BC8EB584608EBD8EB503
S11301808C7F8EBD8091600190916101892BB9F0C3
S1130190C298C198979AC09A81E090E090935901CF
S11301A08093580190935701809356019093510185
S11301B08093500190935D0180935C0116C0C29AB4
S11301C0C19A9798C09881E090E0909359018093E8
S11301D05801909357018093560190935101809355
S11301E05001909365018093640185B5866085BD57
S11301F085B58E7F85BD4EC081E090E0909361010E
S1130200809360018EB5887F8EBD85B5887F85BD5E
S11302101DBC1CBC14BC8EB584608EBD8EB58C7F99
S11302208EBD8091600190916101892BB9F0C298D3
S1130230C198979AC09A81E090E090935901809375
S113024058019093570180935601909351018093E4
S1130250500190935D0180935C0116C0C29AC19ACB
S11302609798C09881E090E0909359018093580149
S113027090935701809356019093510180935001BC
S1130280909365018093640185B5866085BD85B5CD
S11302908E7F85BD9F918F910F900FBE0F901F9001
S11302A018951F920F920FB60F9211248F939F935C
S11302B085B5887F85BD8091600190916101892B0E
S11302C049F0C298C1989798C09A10925D01109213
S11302D05C0108C0C298C19A9798C09810926501B1
S11302E01092640185B5866085BD85B58E7F85BD18
S11302F09F918F910F900FBE0F901F9018951F9292
S11303000F920FB60F9211248F939F9385B5887F18
S113031085BD15BC8091600190916101892B59F0D4
S1130320C298C198979AC09A81E090E090935D0139
S113033080935C010AC0C29AC19A9798C09881E0E0
S113034090E0909365018093640185B5866085BDD6
S113035085B58E7F85BD9F918F910F900FBE0F90B5
S11303601F901895CF93DF93CDB7DEB7C65DD10943
S11303700FB6F894DEBF0FBECDBF1092610110928C
S1130380600110925F0110925E0110926701109259
S1130390660110925901109258011092570110925F
S11303A05601109251011092500188E893E1909304
S11303B055018093540187B3876087BB8F9A85B5B5
S11303C08F7B85BD85B5877F85BD85B58F7C85BDD4
S11303D080E890E090936A018093690180916901BB
S11303E090916A0183BD85B5866085BD85B58E7F94
S11303F085BDC298C1989798C0988EB5877E8EBDEA
S11304008FB58C7F8FBD8EB584608EBD8EB58C7F8D
S11304108EBD8EE794E09BBD8ABD8CEF98E099BDBC
S113042088BD89B7806C89BF89B7886189BF1092FC
S1130430610110926001B4D178940F2EFBE76F2E06
S1130440712CF02DAA24A394B12CCE0101962C0179
S113045009E710E00F2EFEE72F2EF0E03F2EF02DDF
S113046083B52091690130916A0190E08217930766
S113047029F08091690190916A0183BD80916601A0
S113048090916701892B09F4DDC0CB52DF4F79824B
S11304906882C55DD04084E190E0F0D14C017C01DC
S11304A06C0194E1C90ED11C8AE090E0E7D1D70138
S11304B08D939D937D01AC15BD05B1F7BE016B52C3
S11304C07F4F8091620190916301D1D4F4019183B3
S11304D08083892B81F07401F2E0EF0EF11CBE01E0
S11304E06B527F4F80E090E0C2D4D7018D939D93EF
S11304F07D01892BA1F7D401ED91FC9111978181A4
S1130500833309F090C01296ED91FC911397818189
S11305109281CF52DF4F99838883C15DD04083811C
S1130520CD52DF4F8883C35DD040CC52DF4F188259
S1130530C45DD04066E770E0CE018F529F4FC1D4B6
S1130540892B09F070C0F401E480F580D70111967D
S11305508D919C911297C353DF4F99838883CD5C0F
S1130560D04013968C91C153DF4F8883CF5CD04029
S1130570C053DF4F1882C05DD0406AE770E0CE01FF
S113058083539F4F9ED4892B09F04DC0F7013896B1
S113059087E0D20101900D928A95E1F7188662E214
S11305A070E0C20183D47C01E418F508A701B2010C
S11305B0CE0187539F4F5FD4E9ECF0E0EC0FFD1FB1
S11305C0EE0DFF1D1082C753DF4F8881C95CD040F8
S11305D0882349F11E141F0414F5FE01E753FF4F4D
S11305E0EE0EFF1E20E030E08191803309F095018A
S11305F0EE15FF05C9F72130310589F44AE050E0D2
S113060060E070E0CE0187539F4F18D36F3F7105B0
S113061009F048F470936A016093690104C0109270
S11306206A01109269011092670110926601B092FA
S11306304F01A0924E018091620190916301B6D165
S1130640C401B4D180914E0190914F01892B09F4DA
S113065067C05498C0906800D0906900E0906A0028
S1130660F0906B00A0916C00B0916D00E0916E0071
S1130670F0916F0060917000709171004091720070
S113068050917300209174003091750093B480915F
S1130690690190916A011F930F931F930F93DF9247
S11306A0CF92FF92EF921F930F93BF93AF931F9339
S11306B00F93FF93EF937F936F931F930F935F9326
S11306C04F933F932F931F930F931F930F931F9356
S11306D00F931F930F931F930F931F929F921F9338
S11306E00F939F938F931F930F931F930F931F93B6
S11306F00F931F930F931F930F933F922F925F9229
S11307004F920FD40FB6F894DEBF0FBECDBFC20117
S11307105CD05D9BFECF549A10924F0110924E0113
S11307208091580190915901892B09F499CE8091B7
S1130730520190915301892B29F010926700109275
S113074066008ECE80915A0190915B01892B09F04D
S113075087CE8091560190915701892B71F0809139
S1130760640190916501892B21F480915C01909141
S11307705D011092570110925601809150019091A1
S11307805101892B09F46CCE80916401909165012B
S1130790892B09F065CE80915C0190915D0160CE5A
S11307A08AB188618AB9579A10BC87E689B980B53D
S11307B0866880BD80B58F7B80BD80B58B7F80BD12
S11307C008955D9BFECF8CB90895CF93DF93EC0120
S11307D08881882329F02196F4DF89918111FCCF47
S11307E0DF91CF9108958BB18CB10895A1E21A2EB7
S11307F0AA1BBB1BFD010DC0AA1FBB1FEE1FFF1FC1
S1130800A217B307E407F50720F0A21BB30BE40B10
S1130810F50B661F771F881F991F1A9469F7609557
S11308207095809590959B01AC01BD01CF01089511
S1130830A29FB001B39FC001A39F01D0B29F700DCE
S1130840811D1124911D08950F931F93CF93DF935E
S1130850869F8001879F100D969F100D1124C8015B
S11308600DD0EC01009721F0A80160E070E00CD3FA
S1130870CE01DF91CF911F910F9108950F931F9394
S1130880CF93DF938230910510F482E090E0E09101
S11308906D01F0916E0120E030E0A0E0B0E030970F
S11308A019F1408151810281138148175907C8F019
S11308B08417950769F4109731F012960C931297E8
S11308C013961C9327C000936D0110936E0122C0F0
S11308D02115310519F04217530718F49A01BD0187
S11308E0EF01DF01F801DBCF21153105F9F0281BF9
S11308F0390B2430310580F48A819B81611571059F
S113090021F0FB019383828304C090936E01809352
S11309106D01FE01329644C0FE01E20FF31F819384
S1130920919322503109398328833AC020916B0175
S113093030916C01232B41F42091620030916300CB
S113094030936C0120936B01209160003091610021
S11309502115310541F42DB73EB740916400509103
S11309606500241B350BE0916B01F0916C01E217DB
S1130970F307A0F42E1B3F0B2817390778F0AC01BE
S11309804E5F5F4F2417350748F04E0F5F1F50939B
S11309906C0140936B018193919302C0E0E0F0E01D
S11309A0CF01DF91CF911F910F910895CF93DF93E2
S11309B0009709F481C0FC01329713821282A0913E
S11309C06D01B0916E01109781F420813181820F05
S11309D0931F20916B0130916C012817390751F551
S11309E0F0936C01E0936B0167C0ED0120E030E00F
S11309F0CE17DF0740F44A815B819E014115510502
S1130A00F1F0EA01F5CFD383C28340815181840F91
S1130A10951FC817D90759F488819981840F951FA8
S1130A200296918380838A819B819383828321159B
S1130A30310529F4F0936E01E0936D013DC0E901A5
S1130A40FB83EA8349915991C40FD51FEC17FD0725
S1130A5061F480819181840F951F0296E901998345
S1130A608883828193819B838A83E0E0F0E01296FD
S1130A708D919C911397009719F0FD01DC01F7CF3C
S1130A808D919C9111979D012E5F3F4F820F931F73
S1130A9020916B0130916C012817390769F4309764
S1130AA029F410926E0110926D0102C01382128219
S1130AB0B0936C01A0936B01DF91CF910895A0E0F6
S1130AC0B0E0E4E6F5E0EEC4EC01009719F4CB01E4
S1130AD0D5DEB0C0FC01E60FF71F9C01225031099E
S1130AE0E217F30708F4A4C0D9010D911C911197E2
S1130AF006171707A8F00530110508F497C0C801B8
S1130B0004978617970708F491C002501109061B31
S1130B10170B019311936D937C93CF0147DF86C02C
S1130B205B01A01AB10A4C01800E911EA0916D01C7
S1130B30B0916E01612C712CE12CF12C109709F409
S1130B4046C08D919C911197A815B905B1F56C011A
S1130B5042E0C40ED11CCA14DB0478F14C018A189B
S1130B609B08640142E0C40ED11C1296BC901297FB
S1130B701396AC91B5E0CB16D10440F0B282A383B6
S1130B8091828082D9016D937C9309C00E5F1F4FBF
S1130B90800F911FF90191838083EB2DFA2FE114CB
S1130BA0F10431F0D7011396FC93EE9312973EC0F3
S1130BB0F0936E01E0936D0139C06816790608F46C
S1130BC03C017D0112960D90BC91A02DB7CF809170
S1130BD06B0190916C0188169906E1F4661677060C
S1130BE0C8F48091600090916100009741F48DB742
S1130BF09EB74091640050916500841B950BE817E3
S1130C00F907B0F4F0936C01E0936B01F90171837F
S1130C1060830CC0CB0132DE7C01009749F0A8014F
S1130C20BE0129D1CE01C2DEC70104C0CE0102C07B
S1130C3080E090E0CDB7DEB7EEE050C4A0E0B0E0D5
S1130C40E3E2F6E02CC45C016B017A0161157105E5
S1130C5019F0FB0191838083E114F10429F0C701A9
S1130C600297839708F0E2C0E5012196F50110810F
S1130C70812F90E0F4D0892B11F05E01F5CF1D3265
S1130C8029F42196F501118101E007C01B3221F4FA
S1130C90E5012296F501118100E0E114F10409F166
S1130CA0F0E1EF16F10429F43EC010E3E114F1047D
S1130CB021F128E0E216F10401F154F4E2E0EE1629
S1130CC0F10421F5812C912CA12CB0E4BB2E3DC064
S1130CD0FAE0EF16F10439F020E1E216F104B1F480
S1130CE02FC0103311F1FAE0EF2EF12CACEC8A2E68
S1130CF0982CA82CACE0BA2E28C078E0E72EF12C72
S1130D00812C912CA12CE0E1BE2E1FC060E070E08C
S1130D1080E090E897010F2C000C440B550B66DD26
S1130D2049015A0112C0103359F488818F7D8835E6
S1130D3009F0BBCF19812296026080E1E82EF12CE4
S1130D40812C912CA12C68E0B62E40E060E070E08C
S1130D50CB0127010F2C000C66087708FE0150ED2B
S1130D60352E310E29E0231570F42FEB210F2A3193
S1130D7018F439EC332E06C02FE9210F2A3110F56F
S1130D8029EA322E310E232D30E02E153F05D4F4FE
S1130D9047FD15C086169706A806B90668F0A30194
S1130DA0920163D3630D711D811D911D6130710525
S1130DB0810520E8920710F04FEF01C041E0219631
S1130DC01081CCCF202F2170C114D10471F04423A1
S1130DD029F02197F601D183C08307C001FF19C010
S1130DE02297F601D183C08314C047FF12C0222387
S1130DF029F060E070E080E090E804C06FEF7FEFDE
S1130E008FEF9FE722E230E03093700120936F016F
S1130E1009C0222381F090958095709561957F4F4C
S1130E208F4F9F4F462F372F282F12C040E030E0BE
S1130E3020E090E00DC097FFF5CF82E290E0909320
S1130E40700180936F016FEF7FEF8FEF9FE7EACF21
S1130E50642F732F822FCDB7DEB7E1E13CC391112C
S1130E6051C2803219F089508550D0F708954CE46E
S1130E7051E030D00895FB01DC0102C001900D92D5
S1130E8041505040D8F70895DC0101C06D934150A2
S1130E905040E0F70895FB01DC010D900020E9F7D4
S1130EA0119701900D920020E1F70895FC018191C2
S1130EB0861721F08823D9F7992708953197CF0110
S1130EC00895FB01DC018D91019080190110D9F383
S1130ED0990B0895FA01A191B081009719F4109724
S1130EE0E1F0CD01DC01CD010D90002011F4C00131
S1130EF013C0FB012191222319F02015D9F7F3CF58
S1130F00FB012191201519F41E92119606C022238B
S1130F10C1F70D900020A1F7D001FA01A193B0838D
S1130F200895AEE0B0E0E6E9F7E0C6C20D891E8997
S1130F3086E08C831A8309838FEF9FE79E838D83DA
S1130F40AE01475E5F4F6F89788DCE01019608D060
S1130F50EF81F885E00FF11F10822E96E4E0C8C2FD
S1130F60ABE0B0E0E5EBF7E099C26C017B018A01EC
S1130F70FC0117821682838181FFBFC1CE010196D5
S1130F803C01F6019381F70193FD859193FF8191D3
S1130F907F01882309F4ADC1853239F493FD85912D
S1130FA093FF81917F01853221F4B60190E0C3D192
S1130FB0E8CF912C212C312CFFE1F315D8F08B32A2
S1130FC079F038F4803279F08332A1F4232D206152
S1130FD01DC08D3261F0803369F4232D216016C069
S1130FE0832D8260382EE32DE4603E2E2AC0F32D3B
S1130FF0F8601DC037FC2DC020ED280F2A3040F0CA
S11310008E32B9F436FC75C1232D2064322E19C0FA
S113101036FE06C08AE0989E200D1124922E11C03F
S1131020EAE02E9E200D1124222EF32DF0623F2E95
S113103008C08C3621F4832D8068382E02C088368F
S113104041F4F70193FD859193FF81917F01811113
S1131050B3CF982F9F7D9554933028F40C5F1F4F86
S11310609FE399830DC0833631F0833771F0833564
S113107009F055C020C0F801808189830E5F1F4F9D
S113108088248394912C530112C02801F2E04F0E5E
S1131090511CF801A080B18036FE03C0692D70E0B8
S11310A002C06FEF7FEFC5013BD14C018201F32DEC
S11310B0FF773F2E15C0280122E0420E511CF80193
S11310C0A080B18036FE03C0692D70E002C06FEFCE
S11310D07FEFC5011AD14C01F32DF0683F2E820138
S11310E033FC19C0822D90E088169906A0F4B6014D
S11310F080E290E020D12A94F5CFF50137FC859168
S113110037FE81915F01B60190E015D121102A9438
S113111021E0821A91088114910479F7E1C08436A0
S113112011F0893639F5F80137FE07C06081718105
S1131130828193810C5F1F4F08C060817181072EEB
S1131140000C880B990B0E5F1F4FF32DFF763F2E7B
S113115097FF09C090958095709561957F4F8F4F4B
S11311609F4FF0683F2E2AE030E0A30120D1882E63
S1131170861844C0853731F4232D2F7EB22E2AE001
S113118030E025C0932D997FB92E8F36C1F018F425
S1131190883579F0AEC0803719F0883721F0A9C0BE
S11311A0E92FE061BE2EB4FE0DC0FB2DF460BF2E0E
S11311B009C034FE0AC0292F2660B22E06C028E0DA
S11311C030E005C020E130E002C020E132E0F80167
S11311D0B7FE07C060817181828193810C5F1F4FCC
S11311E006C06081718180E090E00E5F1F4FA30113
S11311F0DED0882E8618FB2DFF773F2E36FE0DC0DD
S1131200232D2E7FA22E891458F434FE0BC032FCF9
S113121009C0832D8E7EA82E05C0B82CA32C03C034
S1131220B82C01C0B92CA4FE0FC0FE01E80DF11DBD
S11312308081803321F49A2D997EA92E09C0A2FEC3
S113124006C0B394B39404C08A2D867809F0B3948D
S1131250A3FC10C0A0FE06C0B21480F4280C922C8B
S11312609B180DC0B21458F4B60180E290E063D02C
S1131270B394F8CFB21418F42B1802C0982C212C74
S1131280A4FE0FC0B60180E390E055D0A2FE16C0C4
S1131290A1FC03C088E790E002C088E590E0B601B5
S11312A00CC08A2D867851F0A1FE02C08BE201C0E9
S11312B080E2A7FC8DE2B60190E03DD0891430F4C1
S11312C0B60180E390E037D09A94F8CF8A94F30182
S11312D0E80DF11D8081B60190E02DD08110F6CF8C
S11312E0222009F44ECEB60180E290E024D02A9464
S11312F0F7CFF6018681978102C08FEF9FEF2B967F
S1131300E2E1E8C0992788270895FC01059061501F
S113131070400110D8F7809590958E0F9F1F089507
S1131320FC016150704001900110D8F780959095B0
S11313308E0F9F1F08950F931F93CF93DF93FB018D
S1131340238121FD03C08FEF9FEF2CC022FF16C025
S113135046815781248135814217530744F4A08183
S1131360B1819D012F5F3F4F318320838C93268170
S113137037812F5F3F4F3783268314C08B01EC01E5
S1131380FB010084F185E02D0995892BE1F6D80154
S113139016968D919C911797019617969C938E9310
S11313A01697CE01DF91CF911F910F910895FA0105
S11313B0AA27283051F1203181F1E8946F936E7F90
S11313C06E5F7F4F8F4F9F4FAF4FB1E03ED0B4E081
S11313D03CD0670F781F891F9A1FA11D680F791FC2
S11313E08A1F911DA11D6A0F711D811D911DA11DD3
S11313F020D009F468943F912AE0269F11243019E3
S1131400305D3193DEF6CF010895462F4770405D7D
S11314104193B3E00FD0C9F7F6CF462F4F70405D2C
S11314204A3318F0495D31FD4052419302D0A9F787
S1131430EACFB4E0A6959795879577956795BA9581
S1131440C9F700976105710508959B01AC010A2E47
S113145006945795479537952795BA95C9F7620F1E
S1131460731F841F951FA01D0895DB018F939F9305
S11314700BD0BF91AF91A29F800D911DA39F900DA2
S1131480B29F900D11240895D3D9A59F900DB49FB8
S1131490900DA49F800D911D112408952F923F92C9
S11314A04F925F926F927F928F929F92AF92BF9270
S11314B0CF92DF92EF92FF920F931F93CF93DF931C
S11314C0CDB7DEB7CA1BDB0B0FB6F894DEBF0FBE79
S11314D0CDBF09942A88398848885F846E847D84C6
S11314E08C849B84AA84B984C884DF80EE80FD80C8
S11314F00C811B81AA81B981CE0FD11D0FB6F8943E
S1111500DEBF0FBECDBFED010895F894FFCFFE
S113150E000071012000010015000C00B00405005C
S113151E0C00260001006D666300726571007B0A83
S113152E2533732233223A0A2533737B0A25377304
S113153E226D6663223A0A2537737B0A253131738D
S113154E22726571223A2022253364222C0A253117
S113155E317322637572223A2022253364220A25BE
S113156E37737D2C0A25377322766572223A202230
S113157E312E302E30222C0A25377322706172617F
S113158E6D223A0A2537737B0A253131732270771F
S113159E72223A20202225642E256457222C0A25F5
S11315AE3131732266726571223A202225642E250A
S11315BE64487A222C0A25313173226375727222A1
S11315CE3A202225646D41222C0A2531317322766C
S11315DE6F6C74223A202225642E256456222C0A1E
S10F15EE2537737D0A2533737D0A7D00C8
S9030000FC
