:1000000012C02CC02BC0A6C1D8C128C080C0D8C087
:1000100025C058C023C04AC021C020C01FC01EC078
:100020001DC01CC01BC011241FBECFE5D4E0DEBF25
:10003000CDBF10E0A0E6B0E0E4E1FEE102C0059033
:100040000D92A23AB107D9F723E0A2EAB0E001C0CD
:100050001D92A637B207E1F7EBD1DACED1CF97B137
:10006000907F97B997B1892B87B9369A349BFECF89
:1000700084B195B10895A091C000B091C1009C01D8
:1000800001DB2AE096958795779567952A95D1F7B4
:1000900008953F983E9A379A86B1876086B988E876
:1000A00093E19093C1008093C00008951F920F9236
:1000B0000FB60F921124C2EDD0E090D880930C01BE
:1000C0008993FBCF1F920F920FB60F9211248F933B
:1000D0009F93AF93BF9380910D0190910E01A091DA
:1000E0000F01B09110010196A11DB11D80930D016A
:1000F00090930E01A0930F01B0931001BF91AF91A7
:100100009F918F910F900FBE0F901F9018951F9287
:100110000F920FB60F9211248F939F9385B5887F0E
:1001200085BD1092C5001092C40010920701109274
:1001300006011092C3001092C2008091CC009091F1
:10014000CD00C298892BB9F4C1989798C09A81E0E4
:1001500090E09093050180930401909314018093A3
:1001600013011092C7001092C6001092090110925C
:100170000801959816C0C19A9798C09881E090E0C0
:1001800090930501809304019093CB008093CA0063
:100190001092C7001092C600109209011092080137
:1001A000959A12BE83B7846083BF83B78C7F83BF69
:1001B00014BC9F918F910F900FBE0F901F901895B8
:1001C0001F920F920FB60F9211242F933F934F93CC
:1001D0005F936F937F938F939F93AF931092CB0016
:1001E0001092CA0010921401109213018091BE0067
:1001F0009091BF00C29770F18091C6009091C700A6
:10020000892B41F520916E0030916F004091700074
:100210005091710060917200709173008091740030
:1002200090917500A5E008DB20936E0030936F007D
:10023000409370005093710060937200709373004C
:10024000809374009093750081E090E09093C700D4
:100250008093C6008091CC009091CD00892B29F02D
:100260001092CD001092CC0006C081E090E09093F7
:10027000CD008093CC008EB5887F8EBD85B5887FFC
:1002800085BD1DBC1CBC14BC8EB584608EBD8EB5F6
:100290008C7F8EBD85B5866085BD85B58E7F85BD1D
:1002A0008091CC009091CD00892B59F0C298C198D3
:1002B000979AC09A81E090E09093C5008093C40023
:1002C0000AC0C29AC19A9798C09881E090E0909332
:1002D00007018093060181E090E0909305018093EF
:1002E00004019093D1008093D0009093C300809339
:1002F000C2001092CF001092CE0010921201109204
:10030000110183B7887F83BF12BE10920D01109236
:100310000E0110920F01109210018091BE00909179
:10032000BF00C29749F08091BE009091BF00019636
:100330009093BF008093BE00AF919F918F917F916A
:100340006F915F914F913F912F910F900FBE0F9042
:100350001F9018951F920F920FB60F9211248F9332
:100360009F9385B5887F85BD8091CC009091CD000D
:10037000C298892B21F0C1989798C09A03C0C19A5E
:100380009798C09881E090E09093050180930401D4
:100390001092C5001092C40010920701109206013D
:1003A00085B5866085BD85B58E7F85BD9F918F9112
:1003B0000F900FBE0F901F9018951F920F920FB6BF
:1003C0000F9211248F939F9385B5887F85BD15BCAF
:1003D0008091CC009091CD00892B79F0C298C19882
:1003E000979AC09A81E090E0909305018093040170
:1003F0009093C5008093C4000EC0C29AC19A97988A
:10040000C09881E090E0909305018093040190935F
:1004100007018093060185B5866085BD85B58E7F11
:1004200085BD9F918F910F900FBE0F901F901895D3
:10043000CF93DF93CDB7DEB7A4970FB6F894DEBFA6
:100440000FBECDBF1092CD001092CC001092C9000B
:100450001092C80010920B0110920A0110920D0127
:1004600010920E0110920F01109210011092CF0005
:100470001092CE001092090110920801109205010D
:10048000109204011092D1001092D0001092C3007B
:100490001092C2001092BF001092BE0088E893E153
:1004A0009093C1008093C00087B3876087BB81B3FE
:1004B000806A81BB85B58F7B85BD85B5877F85BD0E
:1004C00085B58F7C85BD80E890E09093AD028093E8
:1004D000AC0280E883BD85B5866085BD85B58E7F1D
:1004E00085BDC298C19A9798C09A8EB5877E8EBDF9
:1004F0008FB58C7F8FBD8EB584608EBD8EB58C7FA1
:100500008EBD82EE94E09BBD8ABD84EC99E099BDDE
:1005100088BD89B7806C89BF89B7886189BF89B771
:10052000816089BF1092CD001092CC0039D6B1DD28
:1005300078949AE0292E312C14E6612E0AE0702E70
:1005400082E0882E912C23B58091AC029091AD026F
:1005500030E02817390710F48F5F06C023B530E06C
:100560008217930710F4815083BD80910A01909106
:100570000B018130910509F047C02091D40023334D
:1005800009F042C09093BB008093BA008091D900DB
:100590008D3609F040C08091DA008636E1F5809111
:1005A000DB008336C1F58091E0008237A1F58091B0
:1005B000E100853681F58091E200813761F5209177
:1005C000E60030E020533109629EA001639E500D89
:1005D00011242091E70030E020533109729EC001C0
:1005E000739E900D1124840F951F2091E80030E038
:1005F00020533109820F931F8F3F910509F058F462
:100600009093AD028093AC028091BA009091BB00B0
:10061000892B09F4FBC05498412C512CC201C99775
:10062000039700F58091AC029091AD0264E670E012
:10063000F3D780E3860FC3D58091AC029091AD02D1
:10064000B101EAD7CB01B101E7D7805DB8D5809180
:10065000AC029091AD02B101DFD7805DB0D503E06F
:10066000400E511CC201825591090397B0F483B525
:10067000662DC6D7805DA3D583B5672DC1D7C0D7FA
:1006800080E3890F9CD583B5672DBAD780E3890FA6
:1006900096D513E0410E511C37C025EA421651048D
:1006A000E9F480916C0090916D000A9728F4809194
:1006B0006C0090916D000FC080916C0090916D0066
:1006C000B101AAD780E3860F7AD580916C00909112
:1006D0006D00B101A1D7805D72D564C036EA4316C2
:1006E000510491F480916A0090916B0064E670E08F
:1006F00093D780E3860F63D580916A0090916B0059
:10070000B1018AD7CB016BC08EEB4816510471F44E
:100710008091680090916900B1017ED780E3860FD7
:100720004ED5809168009091690059C098ED4916A6
:10073000510431F5809164009091650068EE73E09A
:100740006BD780E3860F3BD5809164009091650064
:1007500064E670E061D7CB01B1015ED7805D2FD533
:100760008091640090916500B10156D7CB01B10131
:1007700053D7805D24D580916400909165002FC08F
:10078000A1EF4A16510471F48091620090916300C8
:10079000B10142D780E3860F12D58091620090911B
:1007A00063001DC0B2EF4B165104E9F48091600064
:1007B0009091610064E670E02FD780E3860FFFD44C
:1007C0008091600090916100B10126D7CB01B10109
:1007D00023D7805DF4D48091600090916100B101D5
:1007E0001BD7805DECD4C201D4DAE9D4EFEF4E1A06
:1007F0005E0AF4E04F16F1E05F060CF40FCF5D9B4C
:10080000FECF549A1092BB001092BA008091BE00A5
:100810009091BF00C29708F4B7C2809104019091F3
:100820000501892B09F4B0C28091CA009091CB00D8
:10083000892B09F4FDC083B7887F83BF82B70091FD
:100840000D0110910E0120910F0130911001322FF6
:10085000212F102F0027080F111D211D311D00937E
:100860006E0010936F00209370003093710010920F
:10087000720010927300109274001092750083B78A
:10088000846083BF83B78C7F83BF80E0E8DBF3DBCA
:100890007093BD006093BC00683B0BE0700708F0EC
:1008A00065C0209108013091090123303105C0F065
:1008B000909209018092080120911801309119014C
:1008C000309317012093160120911A0130911B01DA
:1008D000309319012093180110921B0110921A01F4
:1008E0004091B2005091B30040FD3AC02091B40055
:1008F0003091B50022333105A9F0F901EE0FFF1F49
:10090000EE0FFF1FE255FD4F6B017C01EE24FF242B
:10091000C082D182E282F3822F5F3F4F3093B500D5
:100920002093B4004B305105D8F0E0910801F091CC
:100930000901EE0FFF1FEA5EFE4F71836083209175
:100940000801309109012330310550F4209108014C
:10095000309109012F5F3F4F309309012093080127
:10096000CA0101969093B3008093B2008091080170
:1009700090910901039709F05EC18091180190914F
:10098000190120911A0130911B01281B390B2530C8
:10099000310508F050C12091160130911701821BDA
:1009A000930B059708F047C121E030E03093C70072
:1009B0002093C6001092B3001092B20083B7887FD4
:1009C00083BF12BE10920D0110920E0110920F0102
:1009D00010921001A0906E00B0906F00C090700057
:1009E000D0907100E0907200F0907300009174005C
:1009F0001091750020E03AEC4AE95BE360E070E0BA
:100A000080E090E0A8D62093760030937700409362
:100A100078005093790060937A0070937B00809304
:100A20007C0090937D001092CB001092CA0003C10D
:100A30008091130190911401892B09F4FCC083B7B4
:100A4000887F83BF82B700910D0110910E01209124
:100A50000F0130911001322F212F102F0027080F86
:100A6000111D211D311D00936E0010936F00209306
:100A70007000309371001092720010927300109207
:100A800074001092750083B7846083BF83B78C7F36
:100A900083BF81E0E4DAEFDA7093BD006093BC00BD
:100AA000683B3BE0730708F065C020910801309176
:100AB000090123303105C0F09092090180920801AC
:100AC00020911801309119013093170120931601DC
:100AD00020911A0130911B013093190120931801C4
:100AE00010921B0110921A014091B2005091B30074
:100AF00040FD3AC02091B4003091B5002233310559
:100B0000A9F0F901EE0FFF1FEE0FFF1FE255FD4F99
:100B10006B017C01EE24FF24C082D182E282F38249
:100B20002F5F3F4F3093B5002093B4004B305105F9
:100B3000D8F0E0910801F0910901EE0FFF1FEA5E85
:100B4000FE4F7183608320910801309109012330A9
:100B5000310550F420910801309109012F5F3F4F7A
:100B60003093090120930801CA0101969093B300C4
:100B70008093B2008091080190910901039709F0D8
:100B80005AC0809118019091190120911A01309159
:100B90001B01281B390B2530310508F04CC0209172
:100BA000160130911701821B930B059708F043C083
:100BB00081E090E09093C7008093C6001092B3004C
:100BC0001092B20083B7887F83BF12BE10920D01CE
:100BD00010920E0110920F0110921001A0906E0061
:100BE000B0906F00C0907000D0907100E0907200E3
:100BF000F0907300009174001091750020E03AECC1
:100C00004AE95BE360E070E080E090E0A4D52093E7
:100C1000760030937700409378005093790060938A
:100C20007A0070937B0080937C0090937D001092FB
:100C30001401109213018091D0009091D100892B62
:100C400009F18091C4009091C500892BB1F081E039
:100C500006DA11DA7093BD006093BC006C5D710917
:100C600080E090E025D323EE37EC4CE250E4D4D37F
:100C7000F3D27093B9006093B8001092D100109233
:100C8000D00082C08091C2009091C300892B09F4EA
:100C90007BC08091110190911201C29709F474C038
:100CA0008091060190910701892B31F48091C40055
:100CB0009091C500892B99F182E0D1D9DCD99B01B3
:100CC0007093BD006093BC004091CE005091CF0066
:100CD00040FD51C0E0911101F0911201EE0FFF1F94
:100CE000EE0FFF1FEC51FE4FDC01CB01AA27BB2703
:100CF00080839183A283B38380911101909112012B
:100D000001969093120180931101293B3B4098F189
:100D1000A1E0B0E0B093B700A093B6002CC08091E2
:100D2000060190910701892B31F58091C4009091C3
:100D3000C500892B01F582E092D99DD98091CE0022
:100D40009091CF0080FD17C0E0911101F091120148
:100D5000EE0FFF1FEE0FFF1FEC51FE4F10821182AE
:100D60001282138280911101909112010196909349
:100D70001201809311018091CE009091CF000196D5
:100D80009093CF008093CE008091C6009091C700D1
:100D9000892B09F4A9C02CB53DB58AB59BB5281798
:100DA000390708F069C01092C7001092C60010926F
:100DB000B5001092B4001092B3001092B2002091CE
:100DC0006E0030916F004091700050917100609101
:100DD00072007091730080917400909175002C34B2
:100DE000344041055105610571058105910509F002
:100DF00008F442C020916E0030916F004091700065
:100E00005091710060917200709173008091740034
:100E1000909175002F3336404105510561057105EC
:100E20008105910509F040F530916E0020916F0029
:100E300080917000809171008091720080917300A8
:100E40008091740080917500832F922F9BBD8ABD85
:100E500000916E0010916F00209170003091710030
:100E60004091720050917300609174007091750010
:100E7000000F111F19BD08BD80916E0090916F0089
:100E80002091700030917100409172005091730078
:100E900060917400709175007F936F935F934F938F
:100EA0003F932F939F938F938EE790E09F938F9321
:100EB000CC24C394D12CCC0EDD1EDF92CF92C8D4AB
:100EC000C60181D18AB59BB59F938F9380E990E04D
:100ED0009F938F93DF92CF92BBD4C60174D10FB68C
:100EE000F894DEBF0FBECDBF809111019091120129
:100EF000C29709F028CB2091B8003091B9003D8FFE
:100F00002C8FC901A0E0B0E0888F998FAA8FBB8F8A
:100F10004090AA005090AB006090AC007090AD0083
:100F20008090AE009090AF00B091B000BD8BE0918A
:100F3000B100ED870CE111E01F8B0E8B24EE31E048
:100F40003C872B87EB85FC8580819181A281B381D1
:100F50000097A105B105C9F0BC01CD01685C71091C
:100F600081099109A5D125E33EE54AE75EE354D224
:100F700020E030E040E251E44FD26ED1AB85BC8539
:100F80006D937D938D939C931397EB85FC85C08027
:100F9000D180E280F380A7019601688D798D8A8DDA
:100FA0009B8D1FD3AE89BF896D937D938D939D9348
:100FB000BF8BAE8BC701B6017BD1D3D24DD1EB85B0
:100FC000FC856193719381939193FC87EB875B011F
:100FD0006C019B01A60160E070E080E090E05201AE
:100FE000630174010D891D851ED429013A014B014D
:100FF0008D8B9D872CEAC22E22E0D22ECE16DF06E4
:1010000009F0A0CF22E3A22EB12CC12CD12CE12CCF
:10101000F12C00E010E092019ED387D164D2E7D09A
:1010200001E0E5D32B873D8B2093AA003093AB00E2
:101030004093AC005093AD006093AE007093AF004E
:101040008093B0009093B100EC8CFD8C6701E12C93
:10105000F12C00E010E09801CD86DE86EF86F88A5C
:10106000098B1A8B2B8B3C8BAB84BD886A017B016F
:101070008C012D853E8540E050E060E070E080E02E
:1010800090E016D32D873E8B442E588F6E8F7F8F26
:1010900088A399A348EEA42EE3E0BE2EC12CD12C48
:1010A000E12CF12C00E010E0442D55D32AA33BA302
:1010B0004CA3552E3B014C012093A2003093A3007A
:1010C0004093A4005093A5006093A6007092A700DF
:1010D0008093A8009092A9008C8D9D8D68EE73E09E
:1010E0009BD2709363006093620090936100809341
:1010F0006000209176003091770040917800509107
:10110000790060917A0070917B0080917C009091D1
:101110007D000BD120E030E040E85EE37DD19CD043
:1011200028EE33E040E050E08BD23093690020930A
:10113000680070936700609366009B858D8990932B
:10114000640080936500F0E4AF2EA2E4BA2EBFE005
:10115000CB2EF12C2D853E89442D588D6E8D7F8DA3
:1011600088A199A1F8D230936D0020936C0088EE8D
:10117000A82E93E0B92EC12C2AA13BA14CA1552D3C
:10118000B301C401E6D230936B0020936A00109241
:10119000CF001092CE001092120110921101CCC912
:1011A000539A579A10BC87E689B980B5866880BD86
:1011B00080B58F7B80BD80B58B7F80BD08955D9BA2
:1011C000FECF8CB90895CF93DF93EC0189918823EA
:1011D00011F0F5DFFBCFDF91CF9108955F9BFECF3C
:1011E0008CB10895BEE304D008F490E80895BFE3FD
:1011F00022273327A901EFD058F19F5740F1B917A3
:1012000038F1BFE3B91B9927B8503AF4660F771F3E
:10121000881F991FB395D2F316C0B8504AF0232FF8
:10122000342F452F562F672F782F8827B850BAF7BD
:10123000B85F49F0869577956795579547953795A7
:101240002795BA95B9F70EF4AED08894089588948E
:1012500060E070E0CB010895BED088F09F5790F019
:10126000B92F9927B751A0F0D1F0660F771F881FCB
:10127000991F1AF0BA95C9F712C0B13081F0C5D0E4
:10128000B1E00895C2C0672F782F8827B85F39F082
:10129000B93FCCF3869577956795B395D9F73EF42A
:1012A00090958095709561957F4F8F4F9F4F0895D2
:1012B000E89409C097FB3EF49095809570956195F0
:1012C0007F4F8F4F9F4F9923A9F0F92F96E9BB27A6
:1012D0009395F695879577956795B795F111F8CF22
:1012E000FAF4BB0F11F460FF1BC06F5F7F4F8F4F8D
:1012F0009F4F16C0882311F096E911C0772321F083
:101300009EE8872F762F05C0662371F096E8862F1A
:1013100070E060E02AF09A95660F771F881FDAF771
:10132000880F9695879597F90895E894F92F96EB8D
:10133000FF2381F0121613061406440B9395F695BD
:1013400087957795679557954040FF23B9F71BC060
:1013500099270895882351F49850D2F7872B762F38
:10136000652F542F432F322F20E0B1F312161306AE
:101370001406440B88233AF09A95440F551F661FB4
:10138000771F881FCAF755234AF4440F551F11F4DD
:1013900060FF04C06F5F7F4F8F4F9F4F880F969500
:1013A000879597F9089590958095709560955095DB
:1013B0004095309521953F4F4F4F5F4F6F4F7F4F77
:1013C0008F4F9F4F089557FD9058440F551F59F068
:1013D0005F3F71F04795880F97FB991F61F09F3F22
:1013E00079F087950895121613061406551FF2CF4B
:1013F0004695F1DF08C0161617061806991FF1CF9B
:1014000086957105610508940895E894BB276627C1
:101410007727CB0197F908950BD0D2C0C3D028F01D
:10142000C8D018F0952309F09FC0B2C01124EECFA8
:10143000CADFA0F3959FD1F3950F50E0551F629F2F
:10144000F001729FBB27F00DB11D639FAA27F00D1D
:10145000B11DAA1F649F6627B00DA11D661F829F44
:101460002227B00DA11D621F739FB00DA11D621F29
:10147000839FA00D611D221F749F3327A00D611D46
:10148000231F849F600D211D822F762F6A2F112428
:101490009F5750408AF0E1F088234AF0EE0FFF1F7B
:1014A000BB1F661F771F881F91505040A9F79E3FB2
:1014B000510570F059C0AACF5F3FECF3983EDCF3C2
:1014C000869577956795B795F795E7959F5FC1F7EF
:1014D000FE2B880F911D9695879597F9089511F425
:1014E0000EF456C047C077DFD0F39923D9F3CEF37B
:1014F0009F57550B87FF4FD00024A0E640EA90018C
:1015000080585695979528F4805C660F771F881F42
:1015100020F026173707480730F4621B730B840B43
:10152000202931294A2BA695179407942025312587
:101530004A2758F7660F771F881F20F026173707AE
:10154000480730F4620B730B840B200D311D411DD5
:10155000A09581F7B901842F9158880F96958795AA
:1015600008959B01AC0158CF97F99F6780E870E020
:1015700060E008959F3F31F0915020F48795779572
:101580006795B795880F911D9695879597F908955A
:101590009FEF80EC089591505040660F771F881F91
:1015A000D2F7089500240A9416161706180609069D
:1015B000089500240A9412161306140605060895C9
:1015C000092E0394000C11F4882352F0BB0F40F451
:1015D000BF2B11F460FF04C06F5F7F4F8F4F9F4F91
:1015E0000895DB018F939F9359D0BF91AF91A29F34
:1015F000800D911DA39F900DB29F900D1124089511
:10160000991B79E004C0991F961708F0961B881F54
:101610007A95C9F780950895AA1BBB1B51E107C0B5
:10162000AA1FBB1FA617B70710F0A61BB70B881F72
:10163000991F5A95A9F780959095BC01CD01089501
:10164000A1E21A2EAA1BBB1BFD010DC0AA1FBB1FC6
:10165000EE1FFF1FA217B307E407F50720F0A21B38
:10166000B30BE40BF50B661F771F881F991F1A94A5
:1016700069F760957095809590959B01AC01BD01CF
:10168000CF010895A29FB001B39FC001A39F01D0D5
:10169000B29F700D811D1124911D0895F3DFA59F48
:1016A000900DB49F900DA49F800D911D112408955D
:1016B000DF93CF931F930F939A9DF02D219FF00DF1
:1016C0008B9DF00D8A9DE02DF10D039FF00D029F83
:1016D000E00DF11D4E9DE00DF11D5E9DF00D4F9D45
:1016E000F00D7F936F93BF92AF925F934F93D501AD
:1016F000C9DF8B01AC01D701C5DFEB01E80FF91F92
:10170000D6011FD02F913F91D601BCDFC60FD71F46
:10171000E81FF91FAF91BF9114D02F913F91B2DF15
:10172000C60FD71FE81FF91FD601ACDFE60FF71F62
:101730009801BE01CF0111240F911F91CF91DF912C
:101740000895A0DF460F571FC81FD91F08F4319610
:101750000895689401C0E8948F929F92CF93DF938D
:1017600005D0DF91CF919F908F9008958824992480
:10177000F401E401B0E41B2ED4019D158E049F04F6
:10178000E007F10738F4FC014B01CA01B901AD01D2
:101790009E011694220F331F441F551F661F771F8B
:1017A000881F991F881C991CEE1FFF1FCC1FDD1F6F
:1017B000AA1FBB1F8A149B04EC05FD05CE05DF059F
:1017C000A007B10748F08A189B08EC09FD09CE096B
:1017D000DF09A00BB10B21601A94E1F62EF49401FD
:1017E000AF01BE01CD01000C089597FB10F81694CF
:1017F00000080F93083098F00850232F342F452FFE
:10180000562F672F782F892F902DF4CF0594979519
:1018100087957795679557954795379527950A95B5
:10182000AAF70F9108952A0D3B1D4C1D5D1D6E1DDD
:101830007F1D801F911F08950024A7FD00942A0F8B
:10184000301D401D501D601D701D801D901D089590
:10185000AEE0B0E0EDE2FCE0B2C20D891E8986E0A8
:101860008C831A8309838FEF9FE79E838D83AE015C
:10187000475E5F4F6F89788DCE01019608D0EF816A
:10188000F885E00FF11F10822E96E4E0B4C2ABE0C1
:10189000B0E0ECE4FCE085C26C017B018A01FC0154
:1018A00017821682838181FFBFC1CE0101963C0160
:1018B000F6019381F70193FD859193FF81917F015B
:1018C000882309F4ADC1853239F493FD859193FFE6
:1018D00081917F01853221F4B60190E0C0D1E8CF3B
:1018E000912C212C312CFFE1F315D8F08B3279F0BB
:1018F00038F4803279F08332A1F4232D20611DC0A9
:101900008D3261F0803369F4232D216016C0832D60
:101910008260382EE32DE4603E2E2AC0F32DF8605D
:101920001DC037FC2DC020ED280F2A3040F08E322C
:10193000B9F436FC75C1232D2064322E19C036FE51
:1019400006C08AE0989E200D1124922E11C0EAE074
:101950002E9E200D1124222EF32DF0623F2E08C062
:101960008C3621F4832D8068382E02C0883641F4ED
:10197000F70193FD859193FF81917F018111B3CF91
:10198000982F9F7D9554933028F40C5F1F4F9FE351
:1019900099830DC0833631F0833771F0833509F0B8
:1019A00055C020C0F801808189830E5F1F4F8824B5
:1019B0008394912C530112C02801F2E04F0E511C68
:1019C000F801A080B18036FE03C0692D70E002C02E
:1019D0006FEF7FEFC50138D14C018201F32DFF7706
:1019E0003F2E15C0280122E0420E511CF801A080B4
:1019F000B18036FE03C0692D70E002C06FEF7FEF4B
:101A0000C50117D14C01F32DF0683F2E820133FC44
:101A100019C0822D90E088169906A0F4B60180E2E4
:101A200090E01DD12A94F5CFF50137FC859137FE62
:101A300081915F01B60190E012D121102A9421E03A
:101A4000821A91088114910479F7E1C0843611F06B
:101A5000893639F5F80137FE07C0608171818281CE
:101A600093810C5F1F4F08C060817181072E000CAD
:101A7000880B990B0E5F1F4FF32DFF763F2E97FFBC
:101A800009C090958095709561957F4F8F4F9F4FBE
:101A9000F0683F2E2AE030E0A3011DD1882E861881
:101AA00044C0853731F4232D2F7EB22E2AE030E05A
:101AB00025C0932D997FB92E8F36C1F018F4883543
:101AC00079F0AEC0803719F0883721F0A9C0E92F2E
:101AD000E061BE2EB4FE0DC0FB2DF460BF2E09C028
:101AE00034FE0AC0292F2660B22E06C028E030E05E
:101AF00005C020E130E002C020E132E0F801B7FE8D
:101B000007C060817181828193810C5F1F4F06C085
:101B10006081718180E090E00E5F1F4FA301DBD0F8
:101B2000882E8618FB2DFF773F2E36FE0DC0232D05
:101B30002E7FA22E891458F434FE0BC032FC09C04B
:101B4000832D8E7EA82E05C0B82CA32C03C0B82CE4
:101B500001C0B92CA4FE0FC0FE01E80DF11D80816B
:101B6000803321F49A2D997EA92E09C0A2FE06C0C9
:101B7000B394B39404C08A2D867809F0B394A3FC7F
:101B800010C0A0FE06C0B21480F4280C922C9B1842
:101B90000DC0B21458F4B60180E290E060D0B39466
:101BA000F8CFB21418F42B1802C0982C212CA4FEE4
:101BB0000FC0B60180E390E052D0A2FE16C0A1FC97
:101BC00003C088E790E002C088E590E0B6010CC051
:101BD0008A2D867851F0A1FE02C08BE201C080E21E
:101BE000A7FC8DE2B60190E03AD0891430F4B6013A
:101BF00080E390E034D09A94F8CF8A94F301E80D12
:101C0000F11D8081B60190E02AD08110F6CF22200C
:101C100009F44ECEB60180E290E021D02A94F7CFAD
:101C2000F6018681978102C08FEF9FEF2B96E2E14C
:101C3000D4C0FC010590615070400110D8F7809528
:101C400090958E0F9F1F0895FC0161507040019088
:101C50000110D8F7809590958E0F9F1F08950F93D0
:101C60001F93CF93DF93FB01238121FD03C08FEFEF
:101C70009FEF2CC022FF16C04681578124813581F9
:101C80004217530744F4A081B1819D012F5F3F4F5C
:101C9000318320838C93268137812F5F3F4F378399
:101CA000268314C08B01EC01FB010084F185E02D3B
:101CB0000995892BE1F6D80116968D919C9117977D
:101CC000019617969C938E931697CE01DF91CF9134
:101CD0001F910F910895FA01AA27283051F1203160
:101CE00081F1E8946F936E7F6E5F7F4F8F4F9F4FB0
:101CF000AF4FB1E03ED0B4E03CD0670F781F891FF2
:101D00009A1FA11D680F791F8A1F911DA11D6A0FBF
:101D1000711D811D911DA11D20D009F468943F9172
:101D20002AE0269F11243019305D3193DEF6CF0171
:101D30000895462F4770405D4193B3E00FD0C9F737
:101D4000F6CF462F4F70405D4A3318F0495D31FDA4
:101D50004052419302D0A9F7EACFB4E0A6959795F7
:101D6000879577956795BA95C9F7009761057105CD
:101D700008959B01AC010A2E069457954795379517
:101D80002795BA95C9F7620F731F841F951FA01D71
:101D90000895E199FECF9FBB8EBBE09A99278DB342
:101DA00008952F923F924F925F926F927F928F92FF
:101DB0009F92AF92BF92CF92DF92EF92FF920F93DA
:101DC0001F93CF93DF93CDB7DEB7CA1BDB0B0FB6E4
:101DD000F894DEBF0FBECDBF09942A8839884888A1
:101DE0005F846E847D848C849B84AA84B984C88437
:101DF000DF80EE80FD800C811B81AA81B981CE0F2E
:101E0000D11D0FB6F894DEBF0FBECDBFED01089512
:041E1000F894FFCF74
:101E140015000C00B00405000C0026000100204E43
:101E240000000000000050C30000000000006E61CC
:101E3400747572616C2074696D653A2025750A00A9
:101E440064726976696E672074696D653A202575D8
:021E54000A0082
:00000001FF
