S00D000045453331312E73726563F8
S113000012C02CC02BC00BC127C128C0ABC0BEC0BE
S113001025C024C023C023C021C020C01FC01EC0CF
S11300201DC01CC01BC011241FBECFE5D4E0DEBF21
S1130030CDBF10E0A0E6B0E0EEECFCE002C005901D
S11300400D92AE36B107D9F720E0AEE6B0E001C0BC
S11300501D92A138B207E1F725D137C6D1CF1F923F
S11300600F920FB60F921124CF92DF92EF92FF926C
S11300700F931F932F933F934F935F936F937F93AC
S11300808F939F93AF93BF93EF93FF93CF93DF939C
S113009000D0CDB7DEB761E070E081E090E027D218
S11300A06C0190937500809374001ED2F6018083D6
S11300B08A3031F17601FFEFEF1AFF0A01E010E018
S11300C00F5F1F4FB80180917400909175004AD35F
S11300D0909375008093740007D289831A82BE01BD
S11300E06F5F7F4F809174009091750027D56701F1
S11300F08FEFE81AF80AF60180818A3009F702C006
S113010001E010E0B8016F5F7F4F8091740090911F
S1130110750028D39093750080937400F6011182C2
S1130120549881E090E090937700809376000F904C
S11301300F90DF91CF91FF91EF91BF91AF919F917C
S11301408F917F916F915F914F913F912F911F916B
S11301500F91FF90EF90DF90CF900F900FBE0F9014
S11301601F9018951F920F920FB60F9211248F9320
S113017085B5887F85BDC298C1989798C09814BCEE
S11301808F910F900FBE0F901F9018951F920F9292
S11301900FB60F9211248F939F93809172009091C8
S11301A07300892BD1F010927300109272008EB5F7
S11301B0887F8EBD85B5887F85BD1DBC1CBC14BCE5
S11301C08EB584608EBD8EB58C7F8EBD85B5866000
S11301D085BD85B58E7F85BD1BC081E090E0909381
S11301E07300809372008EB5887F8EBD85B5887F3D
S11301F085BD1DBC1CBC14BC8EB584608EBD8EB583
S11302008C7F8EBD85B5866085BD85B58E7F85BDA9
S11302109F918F910F900FBE0F901F9018951F9272
S11302200F920FB60F9211248F939F9380917200B7
S113023090917300892B29F0C298C19A9798C0981D
S113024004C0C298C1989798C09A9F918F910F90BB
S11302500FBE0F901F9018951F920F920FB60F921A
S113026011248F939F9385B5887F85BD80917200FB
S113027090917300892B29F0C298C198979AC09ADB
S113028004C0C29AC19A9798C09885B5866085BD06
S113029085B58E7F85BD9F918F910F900FBE0F9076
S11302A01F901895CF93DF93CDB7DEB766970FB63F
S11302B0F894DEBF0FBECDBF10927300109272008F
S11302C010927100109270001092770010927600D4
S11302D087B3876087BB8F9A85B58F7B85BD85B5CE
S11302E0877F85BD85B58F7C85BD80E890E0909340
S11302F07A00809379008091790090917A0083BD8F
S113030085B5866085BD85B58E7F85BDC298C1984B
S11303109798C0988EB5877E8EBD8FB58C7F8FBD24
S11303208EB584608EBD8EB58C7F8EBD82EE94E0DA
S11303309BBD8ABD84EC99E099BD88BD89B7806C6A
S113034089BF89B7886189BF1092730010927200C7
S113035078940F2EFBE7CF2ED12CF02DCE010196F1
S11303605C0166246394712C8091790090917A00E9
S113037083BD80917600909177000197A9F7DE8A7A
S1130380CD8A84E190E0CDD07C018C014C0194E1D4
S1130390890E911C8AE090E0C4D0D8018D939D937E
S11303A08D01A815B905B1F7BE016B5E7F4F809131
S11303B0740090917500AED3F70191838083892BEB
S11303C079F087010E5F1F4FBE016B5E7F4F80E0A7
S11303D090E0A0D3D8018D939D938D01892BA1F733
S11303E0D701ED91FC9111978181833309F06FC09E
S11303F01296ED91FC911397818192819A8B898B4E
S113040083818B8B1C8A66E670E0CE014196ACD367
S1130410892B09F05CC0F70104811581D80111967C
S11304208D919C9112979E878D8713968C918F87BF
S1130430188A6AE670E0CE010D9696D3892B09F0EE
S113044046C0F801389687E0D50101900D928A954F
S1130450E1F7188662E270E0C5017BD38C010A19CA
S11304601B09A801B501CE01099658D3E9E0F0E0D3
S1130470EC0FFD1FE00FF11F10828985882339F1ED
S11304801016110604F5FE0139960E0F1F1F80E0A9
S113049090E02191203311F0862D972DE017F1077C
S11304A0C1F7019781F44AE050E060E070E0CE01CA
S11304B0099617D26F3F710509F048F470937A00DA
S11304C06093790004C010927A001092790010921F
S11304D0770010927600549A809174009091750080
S11304E0B8D0C701B6D040CF8BB18CB108950F936B
S11304F01F93CF93DF93869F8001879F100D969F54
S1130500100D1124C8010DD0EC01009721F0A801B1
S113051060E070E00CD3CE01DF91CF911F910F9179
S113052008950F931F93CF93DF938230910510F4B6
S113053082E090E0E0917D00F0917E0020E030E0E8
S1130540A0E0B0E0309719F140815181028113811C
S113055048175907C8F08417950769F4109731F0C4
S113056012960C93129713961C9327C000937D0048
S113057010937E0022C02115310519F0421753074C
S113058018F49A01BD01EF01DF01F801DBCF211559
S11305903105F9F0281B390B2430310580F48A81A8
S11305A09B816115710521F0FB019383828304C053
S11305B090937E0080937D00FE01329644C0FE013C
S11305C0E20FF31F819391932250310939832883D9
S11305D03AC020917B0030917C00232B41F4209180
S11305E062003091630030937C0020937B00209163
S11305F06000309161002115310541F42DB73EB7FB
S11306004091640050916500241B350BE0917B0000
S1130610F0917C00E217F307A0F42E1B3F0B281780
S1130620390778F0AC014E5F5F4F2417350748F067
S11306304E0F5F1F50937C0040937B0081939193F6
S113064002C0E0E0F0E0CF01DF91CF911F910F9164
S11306500895CF93DF93009709F481C0FC0132978A
S113066013821282A0917D00B0917E00109781F4D4
S113067020813181820F931F20917B0030917C0077
S11306802817390751F5F0937C00E0937B0067C08D
S1130690ED0120E030E0CE17DF0740F44A815B81B2
S11306A09E0141155105F1F0EA01F5CFD383C283D0
S11306B040815181840F951FC817D90759F4888147
S11306C09981840F951F0296918380838A819B81EF
S11306D0938382832115310529F4F0937E00E093FE
S11306E07D003DC0E901FB83EA8349915991C40F20
S11306F0D51FEC17FD0761F480819181840F951F4C
S11307000296E90199838883828193819B838A83FA
S1130710E0E0F0E012968D919C911397009719F008
S1130720FD01DC01F7CF8D919C9111979D012E5F06
S11307303F4F820F931F20917B0030917C0028173C
S1130740390769F4309729F410927E0010927D00E5
S113075002C013821282B0937C00A0937B00DF91CD
S1130760CF910895A0E0B0E0E7EBF3E06FC2EC01B5
S1130770009719F4CB01D5DEB0C0FC01E60FF71FDA
S11307809C0122503109E217F30708F4A4C0D901EF
S11307900D911C91119706171707A8F00530110544
S11307A008F497C0C80104978617970708F491C006
S11307B002501109061B170B019311936D937C933F
S11307C0CF0147DF86C05B01A01AB10A4C01800E3D
S11307D0911EA0917D00B0917E00612C712CE12CC2
S11307E0F12C109709F446C08D919C911197A8158E
S11307F0B905B1F56C0142E0C40ED11CCA14DB0486
S113080078F14C018A189B08640142E0C40ED11CA3
S11308101296BC9012971396AC91B5E0CB16D10406
S113082040F0B282A38391828082D9016D937C933C
S113083009C00E5F1F4F800F911FF90191838083C0
S1130840EB2DFA2FE114F10431F0D7011396FC9348
S1130850EE9312973EC0F0937E00E0937D0039C082
S11308606816790608F43C017D0112960D90BC913E
S1130870A02DB7CF80917B0090917C0088169906BB
S1130880E1F466167706C8F48091600090916100E7
S1130890009741F48DB79EB7409164005091650074
S11308A0841B950BE817F907B0F4F0937C00E093F0
S11308B07B00F901718360830CC0CB0132DE7C01C3
S11308C0009749F0A801BE0129D1CE01C2DEC701BB
S11308D004C0CE0102C080E090E0CDB7DEB7EEE008
S11308E0D1C1A0E0B0E0E6E7F4E0ADC15C016B018A
S11308F07A016115710519F0FB0191838083E1147C
S1130900F10429F0C7010297839708F0E2C0E501DA
S11309102196F5011081812F90E0F4D0892B11F0FC
S11309205E01F5CF1D3229F42196F501118101E014
S113093007C01B3221F4E5012296F501118100E084
S1130940E114F10409F1F0E1EF16F10429F43EC0D9
S113095010E3E114F10421F128E0E216F10401F1BD
S113096054F4E2E0EE16F10421F5812C912CA12C33
S1130970B0E4BB2E3DC0FAE0EF16F10439F020E1FB
S1130980E216F104B1F42FC0103311F1FAE0EF2EA6
S1130990F12CACEC8A2E982CA82CACE0BA2E28C0F2
S11309A078E0E72EF12C812C912CA12CE0E1BE2ED5
S11309B01FC060E070E080E090E897010F2C000C0D
S11309C0440B550B13D149015A0112C0103359F489
S11309D088818F7D883509F0BBCF1981229602600A
S11309E080E1E82EF12C812C912CA12C68E0B62E0C
S11309F040E060E070E0CB0127010F2C000C66089A
S1130A007708FE0150ED352E310E29E0231570F4E0
S1130A102FEB210F2A3118F439EC332E06C02FE9BD
S1130A20210F2A3110F529EA322E310E232D30E020
S1130A302E153F05D4F447FD15C086169706A80663
S1130A40B90668F0A3019201C2D0630D711D811D26
S1130A50911D61307105810520E8920710F04FEF78
S1130A6001C041E021961081CCCF202F2170C11408
S1130A70D10471F0442329F02197F601D183C08376
S1130A8007C001FF19C02297F601D183C08314C0A7
S1130A9047FF12C0222329F060E070E080E090E874
S1130AA004C06FEF7FEF8FEF9FE722E230E03093D7
S1130AB0800020937F0009C0222381F090958095C7
S1130AC0709561957F4F8F4F9F4F462F372F282F5B
S1130AD012C040E030E020E090E00DC097FFF5CF79
S1130AE082E290E09093800080937F006FEF7FEF2D
S1130AF08FEF9FE7EACF642F732F822FCDB7DEB736
S1130B00E1E1BDC0911160C0803219F08950855077
S1130B10D0F708954EE650E030D00895FB01DC0193
S1130B2002C001900D9241505040D8F70895DC0165
S1130B3001C06D9341505040E0F70895FB01DC0182
S1130B400D900020E9F7119701900D920020E1F734
S1130B500895FC018191861721F08823D9F79927FC
S1130B6008953197CF010895FB01DC018D91019027
S1130B7080190110D9F3990B0895FA01A191B0815C
S1130B80009719F41097E1F0CD01DC01CD010D902F
S1130B90002011F4C00113C0FB012191222319F09C
S1130BA02015D9F7F3CFFB012191201519F41E92DA
S1130BB0119606C02223C1F70D900020A1F7D001A1
S1130BC0FA01A193B0830895992788270895DB013A
S1130BD08F939F932DD0BF91AF91A29F800D911DB4
S1130BE0A39F900DB29F900D11240895A1E21A2E97
S1130BF0AA1BBB1BFD010DC0AA1FBB1FEE1FFF1FBD
S1130C00A217B307E407F50720F0A21BB30BE40B0C
S1130C10F50B661F771F881F991F1A9469F7609553
S1130C207095809590959B01AC01BD01CF0108950D
S1130C3040D0A59F900DB49F900DA49F800D911D51
S1130C40112408952F923F924F925F926F927F9258
S1130C508F929F92AF92BF92CF92DF92EF92FF92C8
S1130C600F931F93CF93DF93CDB7DEB7CA1BDB0B74
S1130C700FB6F894DEBF0FBECDBF09942A88398819
S1130C8048885F846E847D848C849B84AA84B98420
S1130C90C884DF80EE80FD800C811B81AA81B9812C
S1130CA0CE0FD11D0FB6F894DEBF0FBECDBFED0140
S1130CB00895A29FB001B39FC001A39F01D0B29F2A
S1110CC0700D811D1124911D0895F894FFCF2D
S1110CCE0000810020006D66630072657100F5
S9030000FC
