:1000000012C019C018C017C016C015C015C028C02E
:1000100012C011C010C00FC00EC00DC00CC00BC06C
:100020000AC009C008C011241FBECFE5D4E0DEBF5E
:10003000CDBF36D065C0E4CF1F920F920FB60F929E
:1000400011248F9385B5897F85BD85B58F7C85BD4E
:10005000C39A14BC8F910F900FBE0F901F901895EC
:100060001F920F920FB60F9211248F938EB5887F37
:100070008EBD1DBC1CBC8EB58B7F8EBD8EB58360C6
:100080008EBD85B5806385BD85B5846085BD85B52C
:100090008D7F85BD8F910F900FBE0F901F9018958B
:1000A0008FEF84BB87B3886687BB85B5806485BDC9
:1000B00085B5877F85BD85B5806385BD80E883BDB7
:1000C00085B5846085BD85B58D7F85BD8EB5877E00
:1000D0008EBD8FB58C7F8FBD8EB58B7F8EBD8EB55F
:1000E00083608EBD84EC99E09BBD8ABD80E197E280
:1000F00099BD88BD89B7886189BF7894C69AFECFBB
:04010000F894FFCFA1
:00000001FF
