:1000000012C021C020C07DC099C01DC01DC030C01D
:100010001AC019C018C017C016C015C014C013C02C
:1000200012C011C010C011241FBECFE5D4E0DEBF46
:10003000CDBF20E0A0E6B0E001C01D92A236B2071D
:10004000E1F7A2D0DAC0DCCF1F920F920FB60F9269
:1000500011248F9385B5887F85BDC298C1989798E4
:10006000C09814BC8F910F900FBE0F901F901895E1
:100070001F920F920FB60F9211248F939F9380912E
:10008000600090916100892BD1F010926100109274
:1000900060008EB5887F8EBD85B5887F85BD1DBC0F
:1000A0001CBC14BC8EB584608EBD8EB58C7F8EBD9D
:1000B00085B5866085BD85B58E7F85BD1BC081E019
:1000C00090E090936100809360008EB5887F8EBD34
:1000D00085B5887F85BD1DBC1CBC14BC8EB58460F5
:1000E0008EBD8EB58C7F8EBD85B5866085BD85B590
:1000F0008E7F85BD9F918F910F900FBE0F901F90A7
:1001000018951F920F920FB60F9211248F939F9301
:100110008091600090916100892B29F0C298C19A6A
:100120009798C09804C0C298C1989798C09A9F9118
:100130008F910F900FBE0F901F9018951F920F92E6
:100140000FB60F9211248F939F9385B5887F85BD3D
:100150008091600090916100892B29F0C298C1982C
:10016000979AC09A04C0C29AC19A9798C09885B5C8
:10017000866085BD85B58E7F85BD9F918F910F90DF
:100180000FBE0F901F90189587B3876087BB8F9A1B
:1001900085B58F7B85BD85B5877F85BD85B58F7C12
:1001A00085BD8FEF83BD85B5866085BD85B58E7FA6
:1001B00085BDC298C1989798C0988EB5877E8EBD30
:1001C0008FB58C7F8FBD8EB584608EBD8EB58C7FD4
:1001D0008EBD82EE94E09BBD8ABD84EC99E099BD12
:1001E00088BD89B7806C89BF89B7886189BF109243
:0E01F0006100109260007894FFCFF894FFCF6A
:00000001FF
