S00D000045453331312E73726563F8
S113000012C021C020C07BC093C01DC01DC02EC023
S11300101AC019C018C017C016C015C014C013C028
S113002012C011C010C011241FBECFE5D4E0DEBF42
S1130030CDBF20E0A0E6B0E001C01D92A236B20719
S1130040E1F78FD0C6C0DCCF1F920F920FB60F928C
S113005011248F9385B5887F85BDC69AC79A14BC31
S11300608F910F900FBE0F901F9018951F920F92B3
S11300700FB60F9211248F939F93809160009091FB
S11300806100892BE1F48EB5887F8EBD85B5887FAC
S113009085BD1DBC1CBC14BC8EB58B7F8EBD8EB5BE
S11300A083608EBD85B5856085BD85B58D7F85BD35
S11300B081E090E0909361008093600019C08EB558
S11300C0887F8EBD85B5887F85BD1DBC1CBC14BCD6
S11300D08EB58B7F8EBD8EB583608EBD85B58560F4
S11300E085BD85B58D7F85BD10926100109260003D
S11300F09F918F910F900FBE0F901F9018951F9294
S11301000F920FB60F9211248F939F9380916000EA
S113011090916100892B19F4C698C79A02C0C69AB7
S1130120C7989F918F910F900FBE0F901F901895B5
S11301301F920F920FB60F9211248F939F93809169
S1130140600090916100892B19F4C69AC79802C087
S1130150C698C79A9F918F910F900FBE0F901F90D2
S113016018958FEF84BB87B3886C87BB85B58F7B6D
S113017085BD85B5877F85BD85B58F7C85BD80E8C8
S113018083BD85B5856085BD85B58D7F85BDC69AE2
S1130190C69A8EB5877E8EBD8FB58C7F8FBD8EB58A
S11301A08B7F8EBD8EB583608EBD84EC99E09BBD44
S11301B08ABD88E893E199BD88BD89B7806C89BF01
S11301C089B7886189BF10926100109260007894A9
S10901D0FFCFF894FFCFFD
S9030000FC
