:1000000012C02CC02BC0A8C1D4C128C0ABC0F8C03E
:1000100025C091C023C05EC021C020C01FC01EC02B
:100020001DC01CC01BC011241FBECFE5D4E0DEBF25
:10003000CDBF10E0A0E6B0E0E0E1F7E102C005903E
:100040000D92A438B107D9F722E0A4E8B0E001C0CE
:100050001D92AB35B207E1F7E7D158CBD1CF97B1BD
:10006000907F97B997B1892B87B9369A349BFECF89
:1000700084B195B10895A091A000B091A1009C0118
:100080008ED82AE096958795779567952A95D1F72A
:10009000089587B18E6087B9369A349BFECF24B11C
:1000A00035B140E050E060E070E584E190E055D883
:1000B0003093A1002093A00008953F983E9A379A6C
:1000C00086B1876086B988E893E19093A100809318
:1000D000A000DFCF1F920F920FB60F921124CF9383
:1000E000DF9300D0CDB7DEB761E070E081E090E053
:1000F000C1D88C019093B3008093B20017D6F80159
:10010000808301E010E00F5F1F4FB8018091B200C3
:100110009091B300EAD99093B3008093B20006D6D1
:1001200089831A82BE016F5F7F4F8091B2009091E8
:10013000B300AADAE8CF1F920F920FB60F921124E4
:100140008F939F938091BA009091BB0001969093FA
:10015000BB008093BA009F918F910F900FBE0F90BC
:100160001F9018951F920F920FB60F9211248F9324
:100170009F9385B5887F85BD1092A9001092A80035
:100180001092B5001092B40010929D0010929C0045
:100190008091AE009091AF00C298892B71F4C19804
:1001A0009798C09A81E090E09093A5008093A40076
:1001B00090939F0080939E000DC0C19A9798C0981D
:1001C00081E090E09093A5008093A4009093A70015
:1001D0008093A6001092AB001092AA001092B70074
:1001E0001092B60083B7846083BF83B78C7F83BFD0
:1001F00014BC9F918F910F900FBE0F901F90189578
:100200001F920F920FB60F9211242F933F938F934B
:100210009F9310929F0010929E001092A700109240
:10022000A60080919A0090919B008091AE009091E1
:10023000AF00892B39F11092AF001092AE008EB54D
:10024000887F8EBD85B5887F85BD1DBC1CBC14BC58
:100250008EB584608EBD8EB58C7F8EBD8091AE00D4
:100260009091AF00892B39F0C298C198979AC09AA3
:1002700081E090E026C0C29AC19A9798C09881E028
:1002800090E034C081E090E09093AF008093AE00A6
:100290002EB5287F2EBD25B5287F25BD1DBC1CBCD5
:1002A00014BC2EB524602EBD2EB52C7F2EBD209102
:1002B000AE003091AF00232BA9F0C298C198979A55
:1002C000C09A9093A5008093A4009093A30080937C
:1002D000A20090939D0080939C009093A90080932E
:1002E000A80014C0C29AC19A9798C0989093A5008C
:1002F0008093A4009093A3008093A20090939D000C
:1003000080939C009093B5008093B40085B586607F
:1003100085BD85B58E7F85BD83B7887F83BF12BEBF
:100320001092BB001092BA0080919A0090919B00AD
:10033000C29749F080919A0090919B00019690930A
:100340009B0080939A009F918F913F912F910F90E6
:100350000FBE0F901F9018951F920F920FB60F921D
:1003600011248F939F9385B5887F85BD8091AE00C2
:100370009091AF00C298892B41F0C1989798C09A8C
:100380001092A9001092A80007C0C19A9798C0982F
:100390001092B5001092B40085B5866085BD85B514
:1003A0008E7F85BD9F918F910F900FBE0F901F90F4
:1003B00018951F920F920FB60F9211248F939F934F
:1003C00085B5887F85BD15BC8091AE009091AF004A
:1003D000892B79F0C298C198979AC09A81E090E0F1
:1003E0009093A5008093A4009093A9008093A80007
:1003F0000EC0C29AC19A9798C09881E090E09093FD
:10040000A5008093A4009093B5008093B40085B5B7
:10041000866085BD85B58E7F85BD9F918F910F903C
:100420000FBE0F901F901895CF93DF93CDB7DEB717
:1004300066970FB6F894DEBF0FBECDBF1092AF0027
:100440001092AE001092AD001092AC001092B90064
:100450001092B8001092BB001092BA001092B10036
:100460001092B0001092B7001092B6001092A50042
:100470001092A4001092A3001092A20010929D006E
:1004800010929C0010929B0010929A0088E893E1D1
:100490009093A1008093A00087B3876087BB8F9A59
:1004A00085B58F7B85BD85B5877F85BD85B58F7CFF
:1004B00085BD80E890E0909356028093550280E8D5
:1004C00083BD85B5866085BD85B58E7F85BDC298A7
:1004D000C1989798C0988EB5877E8EBD8FB58C7F5A
:1004E0008FBD8EB584608EBD8EB58C7F8EBD8EE740
:1004F00094E09BBD8ABD8CEF98E099BD88BD89B71B
:10050000806C89BF89B7886189BF89B7816089BFDD
:100510001092AF001092AE00F4D3CFDD789423B5E3
:10052000809155029091560230E02817390710F457
:100530008F5F06C023B530E08217930710F4815017
:1005400083BD80E3EFD380919A0090919B00C29786
:1005500008F491C28091A4009091A500892B09F420
:100560008AC28091AA009091AB00892B09F090C1BA
:1005700080919E0090919F00892B09F4C1C083B7A0
:10058000887F83BF22B78091BA009091BB00982FDB
:100590008827820F911D8C0120E030E040E050E080
:1005A000BA018F87188B298B3A8B4B8B5C8B6D8BA9
:1005B0007E8B8093740010937500109276001092D9
:1005C0007700109278001092790010927A001092C1
:1005D0007B0083B7846083BF83B78C7F83BF80E059
:1005E0003EDD49DD70939900609398002091B6003C
:1005F0003091B70023303105D0F022E030E0309365
:10060000B7002093B6002091C1003091C200309312
:10061000C0002093BF002091C3003091C4003093EC
:10062000C2002093C1001092C4001092C300E09158
:10063000B600F091B700EE0FFF1FE154FF4F71833A
:1006400060838091B6009091B700039748F4809141
:10065000B6009091B70001969093B7008093B600D2
:100660008091B6009091B700039709F004C2809181
:10067000C3009091C4002091C1003091C200821B40
:10068000930B0A9708F0F7C141E050E05093AB009C
:100690004093AA0083B7887F83BF12BE1092BB002D
:1006A0001092BA00A0907400B0907500C0907600CF
:1006B000D0907700E0907800F090790000917A0077
:1006C00010917B0020E03AEC4AE95BE360E070E0E7
:1006D00080E090E07CD520937C0030937D004093B7
:1006E0007E0050937F006093800070938100809320
:1006F00082009093830010929F0010929E00BBC1D5
:100700008091A6009091A700892B09F4B4C183B70A
:10071000887F83BF22B78091BA009091BB00982F49
:100720008827820F911D8C0120E030E040E050E0EE
:10073000BA018F87188B298B3A8B4B8B5C8B6D8B17
:100740007E8B809374001093750010927600109247
:100750007700109278001092790010927A0010922F
:100760007B0083B7846083BF83B78C7F83BF81E0C6
:1007700076DC81DC70939900609398002091B6003C
:100780003091B70023303105D0F022E030E03093D3
:10079000B7002093B6002091C1003091C200309381
:1007A000C0002093BF002091C3003091C40030935B
:1007B000C2002093C1001092C4001092C300E091C7
:1007C000B600F091B700EE0FFF1FE154FF4F7183A9
:1007D00060838091B6009091B700039748F48091B0
:1007E000B6009091B70001969093B7008093B60041
:1007F0008091B6009091B700039709F03CC18091B9
:10080000C3009091C4002091C1003091C200821BAE
:10081000930B0A9708F02FC141E050E05093AB00D2
:100820004093AA0083B7887F83BF12BE1092BB009B
:100830001092BA00A0907400B0907500C09076003D
:10084000D0907700E0907800F090790000917A00E5
:1008500010917B0020E03AEC4AE95BE360E070E055
:1008600080E090E0B4D420937C0030937D004093EE
:100870007E0050937F00609380007093810080938E
:100880008200909383001092A7001092A600F3C0FC
:100890008091A2009091A300892B41F18091B40036
:1008A0009091B500892B11F080E007C08091A800DD
:1008B0009091A900892BB1F081E0D1DBDCDB709352
:1008C0009900609398006C5D710980E090E098D287
:1008D00023EE37EC4CE250E447D366D27093970096
:1008E000609396001092A3001092A20080919C0049
:1008F00090919D00892B09F4BEC08091B000909129
:10090000B100C29709F4B7C08091B4009091B500CE
:10091000892B39F48091A8009091A900892B09F4C2
:1009200070C082E09CDBA7DB6B017C018B017093C4
:100930009900609398008091B0009091B10062E3BB
:1009400070E0F7D3892B09F08DC06091BC007091E5
:10095000BD00660F771F660F771F63577E4F7E8738
:100960006D877CEDC71AD108B60180E090E048D2CF
:100970002AEA30E644E55EE3F7D220E030E040E2E8
:1009800051E4F2D211D2ED85FE85608371838283BA
:100990009383E091BC00F091BD002091BC003091A8
:1009A000BD00EE0FFF1FEE0FFF1FAF014B535F4F58
:1009B0007A01220F331F220F331F23573E4FA0917E
:1009C0009600B0919700F9012081318142815381D5
:1009D000F2D3F70160837183828393838091BC009B
:1009E0009091BD0001969093BD008093BC00093B9F
:1009F0001B40C0F101E010E01093950000939400BB
:100A000031C082E02CDB37DB8091B0009091B100E7
:100A100062E370E08ED3892B29F5E091BC00F09160
:100A2000BD00EE0FFF1FEE0FFF1FE357FE4F1082BA
:100A3000118212821382E091BC00F091BD00EE0F92
:100A4000FF1FEE0FFF1FEB53FF4F10821182128228
:100A500013828091BC009091BD0001969093BD00DF
:100A60008093BC008091B0009091B100019690936A
:100A7000B1008093B0008091AA009091AB00892BC7
:100A8000A9F02CB53DB58AB59BB52817390770F488
:100A90001092AB001092AA0022EE34E03BBD2ABDBA
:100AA0008AB59BB5880F991F99BD88BD8091BC0000
:100AB0009091BD00C29709F032CD30918400398306
:100AC000409185004A83509186005B836091870046
:100AD0006C83709188007D83809189008E839091D2
:100AE0008A009F83E0918B00E88780908C00909033
:100AF0008D00F0918E00F98700918F000A87109188
:100B000090001B87209191002C87209092003090BC
:100B100093004DE851E0588B4F8765EC70E07E877D
:100B20006D87EF85F889608171818281938168D1B9
:100B3000C0D23AD12B013C01EF85F88961937193C2
:100B400081939193F88BEF87ED85FE85819191914B
:100B5000A191B191FE87ED875C016D019C01A60119
:100B600060E070E080E090E0A980BA80CB80DC801B
:100B7000ED80FE800F81188574D329833A834B83DF
:100B80005C836D837E838F8398876301520192011A
:100B9000A60160E070E080E090E05401C984DA844E
:100BA000EB84FC8481015DD3490149875A876B87B7
:100BB0007C871C0105E512E02F8538890217130791
:100BC00009F0AFCF82E3A82EB12CC12CD12CE12C9F
:100BD000F12C00E010E09401C101F9D24ED12BD2EA
:100BE000AED0190120938C0030928D0040938E007E
:100BF00050938F00609390007093910080939200C7
:100C00009093930090E5A92E23ECB22E29813A818E
:100C10004B815C816D817E818F819885D8D229013D
:100C20003A014B018A87998720938400509285006E
:100C300040938600709287006093880090928900AC
:100C400080938A0090938B008091960090919700FA
:100C500068EE73E06ED270936900609368009093C1
:100C600067008093660020917C0030917D00409168
:100C70007E0050917F006091800070918100809192
:100C8000820090918300F9D020E030E040E85EE3FC
:100C90006BD18AD028EE33E040E050E05ED2309352
:100CA0006F0020936E0070936D0060936C00209233
:100CB0006A0030926B0030E8A32E40EFB42E5AEF5A
:100CC000C52E62E0D62E29813A814B815C816D81EF
:100CD0007E818F8198857BD2309373002093720040
:100CE00078EEA72EE3E0BE2EC12CD12C9201A301F9
:100CF000B4018A85998569D2309371002093700080
:100D00000ECC8AB188618AB9579A10BC87E689B936
:100D100080B5866880BD80B58F7B80BD80B58B7FB8
:100D200080BD08955D9BFECF8CB908955F9BFECF7B
:100D30008CB10895BEE304D008F490E80895BFE3B1
:100D400022273327A901EFD058F19F5740F1B91757
:100D500038F1BFE3B91B9927B8503AF4660F771FF3
:100D6000881F991FB395D2F316C0B8504AF0232FAD
:100D7000342F452F562F672F782F8827B850BAF772
:100D8000B85F49F08695779567955795479537955C
:100D90002795BA95B9F70EF4AED088940895889443
:100DA00060E070E0CB010895BED088F09F5790F0CE
:100DB000B92F9927B751A0F0D1F0660F771F881F80
:100DC000991F1AF0BA95C9F712C0B13081F0C5D099
:100DD000B1E00895C2C0672F782F8827B85F39F037
:100DE000B93FCCF3869577956795B395D9F73EF4DF
:100DF00090958095709561957F4F8F4F9F4F089587
:100E0000E89409C097FB3EF49095809570956195A4
:100E10007F4F8F4F9F4F9923A9F0F92F96E9BB275A
:100E20009395F695879577956795B795F111F8CFD6
:100E3000FAF4BB0F11F460FF1BC06F5F7F4F8F4F41
:100E40009F4F16C0882311F096E911C0772321F037
:100E50009EE8872F762F05C0662371F096E8862FCF
:100E600070E060E02AF09A95660F771F881FDAF726
:100E7000880F9695879597F90895E894F92F96EB42
:100E8000FF2381F0121613061406440B9395F69572
:100E900087957795679557954040FF23B9F71BC015
:100EA00099270895882351F49850D2F7872B762FED
:100EB000652F542F432F322F20E0B1F31216130663
:100EC0001406440B88233AF09A95440F551F661F69
:100ED000771F881FCAF755234AF4440F551F11F492
:100EE00060FF04C06F5F7F4F8F4F9F4F880F9695B5
:100EF000879597F908959095809570956095509590
:100F00004095309521953F4F4F4F5F4F6F4F7F4F2B
:100F10008F4F9F4F089557FD9058440F551F59F01C
:100F20005F3F71F04795880F97FB991F61F09F3FD6
:100F300079F087950895121613061406551FF2CFFF
:100F40004695F1DF08C0161617061806991FF1CF4F
:100F500086957105610508940895E894BB27662776
:100F60007727CB0197F908950BD0D2C0C3D028F0D2
:100F7000C8D018F0952309F09FC0B2C01124EECF5D
:100F8000CADFA0F3959FD1F3950F50E0551F629FE4
:100F9000F001729FBB27F00DB11D639FAA27F00DD2
:100FA000B11DAA1F649F6627B00DA11D661F829FF9
:100FB0002227B00DA11D621F739FB00DA11D621FDE
:100FC000839FA00D611D221F749F3327A00D611DFB
:100FD000231F849F600D211D822F762F6A2F1124DD
:100FE0009F5750408AF0E1F088234AF0EE0FFF1F30
:100FF000BB1F661F771F881F91505040A9F79E3F67
:10100000510570F059C0AACF5F3FECF3983EDCF376
:10101000869577956795B795F795E7959F5FC1F7A3
:10102000FE2B880F911D9695879597F9089511F4D9
:101030000EF456C047C077DFD0F39923D9F3CEF32F
:101040009F57550B87FF4FD00024A0E640EA900140
:1010500080585695979528F4805C660F771F881FF7
:1010600020F026173707480730F4621B730B840BF8
:10107000202931294A2BA69517940794202531253C
:101080004A2758F7660F771F881F20F02617370763
:10109000480730F4620B730B840B200D311D411D8A
:1010A000A09581F7B901842F9158880F969587955F
:1010B00008959B01AC0158CF97F99F6780E870E0D5
:1010C00060E008959F3F31F0915020F48795779527
:1010D0006795B795880F911D9695879597F908950F
:1010E0009FEF80EC089591505040660F771F881F46
:1010F000D2F7089500240A94161617061806090652
:10110000089500240A94121613061406050608957D
:10111000092E0394000C11F4882352F0BB0F40F405
:10112000BF2B11F460FF04C06F5F7F4F8F4F9F4F45
:101130000895AA1BBB1B51E107C0AA1FBB1FA6171E
:10114000B70710F0A61BB70B881F991F5A95A9F770
:1011500080959095BC01CD010895A1E21A2EAA1B9D
:10116000BB1BFD010DC0AA1FBB1FEE1FFF1FA21757
:10117000B307E407F50720F0A21BB30BE40BF50B54
:10118000661F771F881F991F1A9469F760957095DD
:10119000809590959B01AC01BD01CF010895A29F60
:1011A000B001B39FC001A39F01D0B29F700D811DFC
:1011B0001124911D0895F3DFA59F900DB49F900D0C
:1011C000A49F800D911D11240895689401C0E89496
:1011D0008F929F92CF93DF9305D0DF91CF919F9015
:1011E0008F90089588249924F401E401B0E41B2E23
:1011F000D4019D158E049F04E007F10738F4FC012B
:101200004B01CA01B901AD019E011694220F331F93
:10121000441F551F661F771F881F991F881C991C24
:10122000EE1FFF1FCC1FDD1FAA1FBB1F8A149B04CC
:10123000EC05FD05CE05DF05A007B10748F08A18CB
:101240009B08EC09FD09CE09DF09A00BB10B216059
:101250001A94E1F62EF49401AF01BE01CD01000C09
:1012600008952A0D3B1D4C1D5D1D6E1D7F1D801FA9
:10127000911F08950F931F93CF93DF93869F800153
:10128000879F100D969F100D1124C8010DD0EC0101
:10129000009721F0A80160E070E0EFD1CE01DF916E
:1012A000CF911F910F9108950F931F93CF93DF93C9
:1012B0008230910510F482E090E0E0915902F091C3
:1012C0005A0220E030E0A0E0B0E0309719F1408110
:1012D00051810281138148175907C8F08417950777
:1012E00069F4109731F012960C93129713961C9391
:1012F00027C00093590210935A0222C021153105CC
:1013000019F04217530718F49A01BD01EF01DF01EC
:10131000F801DBCF21153105F9F0281B390B2430FA
:10132000310580F48A819B816115710521F0FB01F3
:101330009383828304C090935A0280935902FE01E2
:10134000329644C0FE01E20FF31F81939193225025
:101350003109398328833AC02091570230915802CD
:10136000232B41F4209162003091630030935802A6
:1013700020935702209160003091610021153105C2
:1013800041F42DB73EB74091640050916500241B95
:10139000350BE0915702F0915802E217F307A0F4E1
:1013A0002E1B3F0B2817390778F0AC014E5F5F4FBB
:1013B0002417350748F04E0F5F1F50935802409393
:1013C00057028193919302C0E0E0F0E0CF01DF91FA
:1013D000CF911F910F910895CF93DF93009709F458
:1013E00081C0FC01329713821282A0915902B09100
:1013F0005A02109781F420813181820F931F20912E
:101400005702309158022817390751F5F0935802C6
:10141000E093570267C0ED0120E030E0CE17DF0710
:1014200040F44A815B819E0141155105F1F0EA01CA
:10143000F5CFD383C28340815181840F951FC81794
:10144000D90759F488819981840F951F0296918359
:1014500080838A819B81938382832115310529F4BE
:10146000F0935A02E09359023DC0E901FB83EA83FD
:1014700049915991C40FD51FEC17FD0761F4808184
:101480009181840F951F0296E90199838883828157
:1014900093819B838A83E0E0F0E012968D919C918A
:1014A0001397009719F0FD01DC01F7CF8D919C9106
:1014B00011979D012E5F3F4F820F931F209157027E
:1014C000309158022817390769F4309729F410929F
:1014D0005A021092590202C013821282B09358022B
:1014E000A0935702DF91CF910895A0E0B0E0EAE722
:1014F000FAE0D9C0EC01009719F4CB01D5DEB0C0F9
:10150000FC01E60FF71F9C0122503109E217F30797
:1015100008F4A4C0D9010D911C9111970617170763
:10152000A8F00530110508F497C0C8010497861784
:10153000970708F491C002501109061B170B01937D
:1015400011936D937C93CF0147DF86C05B01A01A96
:10155000B10A4C01800E911EA0915902B0915A021D
:10156000612C712CE12CF12C109709F446C08D915F
:101570009C911197A815B905B1F56C0142E0C40E14
:10158000D11CCA14DB0478F14C018A189B08640151
:1015900042E0C40ED11C1296BC9012971396AC91E7
:1015A000B5E0CB16D10440F0B282A3839182808251
:1015B000D9016D937C9309C00E5F1F4F800F911F5F
:1015C000F90191838083EB2DFA2FE114F10431F0BE
:1015D000D7011396FC93EE9312973EC0F0935A02F4
:1015E000E093590239C06816790608F43C017D0180
:1015F00012960D90BC91A02DB7CF8091570290917B
:10160000580288169906E1F466167706C8F48091A8
:10161000600090916100009741F48DB79EB74091B2
:10162000640050916500841B950BE817F907B0F42E
:10163000F0935802E0935702F901718360830CC064
:10164000CB0132DE7C01009749F0A801BE010CD02D
:10165000CE01C2DEC70104C0CE0102C080E090E02E
:10166000CDB7DEB7EEE03BC0FB01DC0102C001906C
:101670000D9241505040D8F70895DC0101C06D93A0
:1016800041505040E0F70895FB01DC010D9000202F
:10169000E9F7119701900D920020E1F708952F923C
:1016A0003F924F925F926F927F928F929F92AF92F2
:1016B000BF92CF92DF92EF92FF920F931F93CF933F
:1016C000DF93CDB7DEB7CA1BDB0B0FB6F894DEBFD6
:1016D0000FBECDBF09942A88398848885F846E84FC
:1016E0007D848C849B84AA84B984C884DF80EE8046
:1016F000FD800C811B81AA81B981CE0FD11D0FB64F
:10170000F894DEBF0FBECDBFED010895F894FFCF72
:1017100000005B02200015000C00B00405000C0066
:1017200026000100204E00000000000050C3000011
:0417300000000000B5
:00000001FF
