S00D000045453331312E73726563F8
S113000012C02CC02BC070C1A2C128C097C0E4C0CC
S113001025C07DC023C04AC021C020C01FC01EC04F
S11300201DC01CC01BC011241FBECFE5D4E0DEBF21
S1130030CDBF10E0A0E6B0E0EEE6F9E102C0059025
S11300400D92AA38B107D9F722E0AAE8B0E001C0BE
S11300501D92A136B207E1F7B5D187CCD1CF97B1C4
S1130060907F97B997B1892B87B9369A349BFECF85
S113007084B195B10895A091A200B091A3009C0110
S1130080ADD62AE096958795779567952A95D1F709
S113009008953F983E9A379A86B1876086B988E872
S11300A093E19093A3008093A20008951F920F926E
S11300B00FB60F921124CF93DF9300D0CDB7DEB7E4
S11300C061E070E081E090E063D78C019093B5002B
S11300D08093B4003BD4F801808301E010E00F5F0B
S11300E01F4FB8018091B4009091B5008CD89093C3
S11300F0B5008093B4002AD489831A82BE016F5F4D
S11301007F4F8091B4009091B5004CD9E8CF1F92F5
S11301100F920FB60F9211248F939F938091BE007C
S11301209091BF0001969093BF008093BE009F9171
S11301308F910F900FBE0F901F9018951F920F92E2
S11301400FB60F9211248F939F9385B5887F85BD39
S11301501092A7001092A6001092B9001092B80055
S11301601092A5001092A4008091AE009091AF006F
S1130170C298892B71F4C1989798C09A81E090E055
S11301809093B7008093B6009093AD008093AC0039
S11301900DC0C19A9798C09881E090E09093B70001
S11301A08093B6009093C3008093C2001092A9007C
S11301B01092A8001092BB001092BA0083B784601A
S11301C083BF83B78C7F83BF14BC9F918F910F90A3
S11301D00FBE0F901F9018951F920F920FB60F929B
S11301E011248F939F931092AD001092AC00109243
S11301F0C3001092C2008091A0009091A100809150
S1130200AE009091AF00892B29F01092AF001092AC
S1130210AE0006C081E090E09093AF008093AE0002
S11302208EB5887F8EBD85B5887F85BD1DBC1CBC01
S113023014BC8EB584608EBD8EB58C7F8EBD85B5A5
S1130240866085BD85B58E7F85BD8091AE00909119
S1130250AF00892B59F0C298C198979AC09A81E04F
S113026090E09093A7008093A6000AC0C29AC19A16
S11302709798C09881E090E09093B9008093B8007B
S113028081E090E09093B7008093B6009093B30020
S11302908093B2009093A5008093A4001092B100C3
S11302A01092B0001092C1001092C00083B7887FF2
S11302B083BF12BE1092BF001092BE008091A000B6
S11302C09091A100C29749F08091A0009091A10063
S11302D001969093A1008093A0009F918F910F901D
S11302E00FBE0F901F9018951F920F920FB60F928A
S11302F011248F939F9385B5887F85BD8091AE002F
S11303009091AF00C298892B21F0C1989798C09A18
S113031003C0C19A9798C09881E090E09093B70089
S11303208093B6001092A7001092A6001092B90014
S11303301092B80085B5866085BD85B58E7F85BD74
S11303409F918F910F900FBE0F901F9018951F9241
S11303500F920FB60F9211248F939F9385B5887FC8
S113036085BD15BC8091AE009091AF00892B79F0CA
S1130370C298C198979AC09A81E090E09093B70090
S11303808093B6009093A7008093A6000EC0C29AF3
S1130390C19A9798C09881E090E09093B7008093B9
S11303A0B6009093B9008093B80085B5866085BD8A
S11303B085B58E7F85BD9F918F910F900FBE0F9055
S11303C01F901895CF93DF93CDB7DEB764970FB620
S11303D0F894DEBF0FBECDBF1092AF001092AE00F6
S11303E01092AB001092AA001092BD001092BC00B3
S11303F01092BF001092BE001092B1001092B00093
S11304001092BB001092BA001092B7001092B6007E
S11304101092B3001092B2001092A5001092A400A2
S11304201092A1001092A00088E893E19093A30099
S11304308093A20087B3876087BB8F9A85B58F7B33
S113044085BD85B5877F85BD85B58F7C85BD8FEFDF
S113045090E090935C0280935B028FEF83BD85B53F
S1130460866085BD85B58E7F85BDC298C19A9798F3
S1130470C09A8EB5877E8EBD8FB58C7F8FBD8EB5AD
S113048084608EBD8EB58C7F8EBD8EE794E09BBD5F
S11304908ABD8CEF98E099BD88BD89B7806C89BF0F
S11304A089B7886189BF89B7816089BF1092AF001D
S11304B01092AE002DD2EDDD789423B580915B02CD
S11304C090915C0230E02817390710F48F5F06C062
S11304D023B530E08217930710F4815083BD8091D7
S11304E0A0009091A100C29708F4B0C08091B6001A
S11304F09091B700892B09F4A9C08091B200909122
S1130500B300892B09F18091A6009091A700892B53
S1130510B1F081E0A4DDAFDD70939F0060939E0095
S11305206C5D710980E090E07BD223EE37EC4CE205
S113053050E42AD349D270939D0060939C0010929A
S1130540B3001092B20082C08091A4009091A500E3
S1130550892B09F47BC08091C0009091C100C2979F
S113056009F474C08091B8009091B900892B31F4DA
S11305708091A6009091A700892B99F182E06FDD0C
S11305807ADD9B0170939F0060939E004091B000C0
S11305905091B10040FD51C0E091C000F091C10004
S11305A0EE0FFF1FEE0FFF1FED56FE4FDC01CB01D8
S11305B0AA27BB2780839183A283B3838091C00041
S11305C09091C10001969093C1008093C000293B93
S11305D03B4098F1A1E0B0E0B0939B00A0939A0057
S11305E02CC08091B8009091B900892B31F580918D
S11305F0A6009091A700892B01F582E030DD3BDD58
S11306008091B0009091B10080FD17C0E091C000CE
S1130610F091C100EE0FFF1FEE0FFF1FED56FE4FCE
S113062010821182128213828091C0009091C100C5
S113063001969093C1008093C0008091B000909186
S1130640B10001969093B1008093B0008091A8000E
S11306509091A900892B59F02CB53DB58AB59BB56D
S11306602817390720F41092A9001092A80080914D
S1130670C0009091C100C29709F01FCFE0919C0087
S1130680F0919D00F88BEF87CF01A0E0B0E0898B5B
S11306909A8BAB8BBC8B40909200509093006090EF
S11306A09400709095008090960090909700209010
S11306B0980030909900EBECF0E0FE87ED8783E939
S11306C091E09C878B87EB85FC8580819181A28159
S11306D0B3810097A105B105C9F0BC01CD01685CE7
S11306E07109810991099CD125E33EE54AE75EE35E
S11306F04BD220E030E040E251E446D265D1AB85F4
S1130700BC856D937D938D939C931397EB85FC85AA
S1130710C080D180E280F380A701960169897A893B
S11307208B899C8916D3AD85BE856D937D938D93FE
S11307309D93BE87AD87C701B60172D1CAD244D199
S1130740EB85FC856193719381939193FC87EB878F
S11307505B016C019B01A60160E070E080E090E029
S113076052016301740181010AD429013A014B0148
S11307701C01EB55F24009F0A6CF82E3A82EB12C60
S1130780C12CD12CE12CF12C00E010E09201C1012C
S11307908ED383D160D2E3D001E0D5D320939200ED
S11307A03093930040939400509395006093960087
S11307B0709397008093980090939900AF85B889BF
S11307C059016A017B018C019D0140E050E060E029
S11307D070E080E090E018D3E8EEAE2EF3E0BF2E98
S11307E0C12CD12CE12CF12C00E010E060D320933B
S11307F08A0030938B0040938C0050938D0060935B
S11308008E0070938F0080939000909391009F933B
S11308108F937F936F935F934F933F932F93ECE763
S1130820F0E0FF93EF9381E090E08C0F9D1F9F9386
S11308308F93C3D5CE0101967ED080919C00909178
S11308409D0068EE73E094D2709369006093680031
S11308509093670080936600209174003091750036
S11308604091760050917700609178007091790002
S113087080917A0090917B0010D120E030E040E834
S11308805EE382D1A1D028EE33E040E050E084D290
S113089030936F0020936E0070936D0060936C0032
S11308A0809192009091930090936B0080936A00E2
S11308B020908A0030908B0040908C0050908D00E6
S11308C060908E0070908F008090900090909100C6
S11308D09101A201B301C401EAD2309373002093C1
S11308E072009101A201B301C401DFD230937100FF
S11308F0209370001092B1001092B0001092C100C9
S11309001092C0000FB6F894DEBF0FBECDBFD5CD98
S1130910539A579A10BC87E689B980B5866880BD1A
S113092080B58F7B80BD80B58B7F80BD08955D9B36
S1130930FECF8CB90895CF93DF93EC01899188237E
S113094011F0F5DFFBCFDF91CF9108955F9BFECFD0
S11309508CB10895BEE304D008F490E80895BFE391
S113096022273327A901EFD058F19F5740F1B91737
S113097038F1BFE3B91B9927B8503AF4660F771FD3
S1130980881F991FB395D2F316C0B8504AF0232F8D
S1130990342F452F562F672F782F8827B850BAF752
S11309A0B85F49F08695779567955795479537953C
S11309B02795BA95B9F70EF4AED088940895889423
S11309C060E070E0CB010895BED088F09F5790F0AE
S11309D0B92F9927B751A0F0D1F0660F771F881F60
S11309E0991F1AF0BA95C9F712C0B13081F0C5D079
S11309F0B1E00895C2C0672F782F8827B85F39F017
S1130A00B93FCCF3869577956795B395D9F73EF4BE
S1130A1090958095709561957F4F8F4F9F4F089566
S1130A20E89409C097FB3EF4909580957095619584
S1130A307F4F8F4F9F4F9923A9F0F92F96E9BB273A
S1130A409395F695879577956795B795F111F8CFB6
S1130A50FAF4BB0F11F460FF1BC06F5F7F4F8F4F21
S1130A609F4F16C0882311F096E911C0772321F017
S1130A709EE8872F762F05C0662371F096E8862FAF
S1130A8070E060E02AF09A95660F771F881FDAF706
S1130A90880F9695879597F90895E894F92F96EB22
S1130AA0FF2381F0121613061406440B9395F69552
S1130AB087957795679557954040FF23B9F71BC0F5
S1130AC099270895882351F49850D2F7872B762FCD
S1130AD0652F542F432F322F20E0B1F31216130643
S1130AE01406440B88233AF09A95440F551F661F49
S1130AF0771F881FCAF755234AF4440F551F11F472
S1130B0060FF04C06F5F7F4F8F4F9F4F880F969594
S1130B10879597F90895909580957095609550956F
S1130B204095309521953F4F4F4F5F4F6F4F7F4F0B
S1130B308F4F9F4F089557FD9058440F551F59F0FC
S1130B405F3F71F04795880F97FB991F61F09F3FB6
S1130B5079F087950895121613061406551FF2CFDF
S1130B604695F1DF08C0161617061806991FF1CF2F
S1130B7086957105610508940895E894BB27662756
S1130B807727CB0197F908950BD0D2C0C3D028F0B2
S1130B90C8D018F0952309F09FC0B2C01124EECF3D
S1130BA0CADFA0F3959FD1F3950F50E0551F629FC4
S1130BB0F001729FBB27F00DB11D639FAA27F00DB2
S1130BC0B11DAA1F649F6627B00DA11D661F829FD9
S1130BD02227B00DA11D621F739FB00DA11D621FBE
S1130BE0839FA00D611D221F749F3327A00D611DDB
S1130BF0231F849F600D211D822F762F6A2F1124BD
S1130C009F5750408AF0E1F088234AF0EE0FFF1F0F
S1130C10BB1F661F771F881F91505040A9F79E3F46
S1130C20510570F059C0AACF5F3FECF3983EDCF356
S1130C30869577956795B795F795E7959F5FC1F783
S1130C40FE2B880F911D9695879597F9089511F4B9
S1130C500EF456C047C077DFD0F39923D9F3CEF30F
S1130C609F57550B87FF4FD00024A0E640EA900120
S1130C7080585695979528F4805C660F771F881FD7
S1130C8020F026173707480730F4621B730B840BD8
S1130C90202931294A2BA69517940794202531251C
S1130CA04A2758F7660F771F881F20F02617370743
S1130CB0480730F4620B730B840B200D311D411D6A
S1130CC0A09581F7B901842F9158880F969587953F
S1130CD008959B01AC0158CF97F99F6780E870E0B5
S1130CE060E008959F3F31F0915020F48795779507
S1130CF06795B795880F911D9695879597F90895EF
S1130D009FEF80EC089591505040660F771F881F25
S1130D10D2F7089500240A94161617061806090631
S1130D20089500240A94121613061406050608955D
S1130D30092E0394000C11F4882352F0BB0F40F4E5
S1130D40BF2B11F460FF04C06F5F7F4F8F4F9F4F25
S1130D500895DB018F939F934DD0BF91AF91A29FD4
S1130D60800D911DA39F900DB29F900D11240895A5
S1130D70AA1BBB1B51E107C0AA1FBB1FA617B707BD
S1130D8010F0A61BB70B881F991F5A95A9F78095D9
S1130D909095BC01CD010895A1E21A2EAA1BBB1B9C
S1130DA0FD010DC0AA1FBB1FEE1FFF1FA217B30733
S1130DB0E407F50720F0A21BB30BE40BF50B661F49
S1130DC0771F881F991F1A9469F76095709580950D
S1130DD090959B01AC01BD01CF010895A29FB00184
S1130DE0B39FC001A39F01D0B29F700D811D112438
S1130DF0911D0895F3DFA59F900DB49F900DA49FBE
S1130E00800D911D11240895DF93CF931F930F93A9
S1130E109A9DF02D219FF00D8B9DF00D8A9DE02D64
S1130E20F10D039FF00D029FE00DF11D4E9DE00DAD
S1130E30F11D5E9DF00D4F9DF00D7F936F93BF925A
S1130E40AF925F934F93D501C9DF8B01AC01D701FA
S1130E50C5DFEB01E80FF91FD6011FD02F913F9199
S1130E60D601BCDFC60FD71FE81FF91FAF91BF9192
S1130E7014D02F913F91B2DFC60FD71FE81FF91F7F
S1130E80D601ACDFE60FF71F9801BE01CF01112494
S1130E900F911F91CF91DF910895A0DF460F571F47
S1130EA0C81FD91F08F431960895689401C0E894C6
S1130EB08F929F92CF93DF9305D0DF91CF919F9034
S1130EC08F90089588249924F401E401B0E41B2E42
S1130ED0D4019D158E049F04E007F10738F4FC014A
S1130EE04B01CA01B901AD019E011694220F331FB3
S1130EF0441F551F661F771F881F991F881C991C44
S1130F00EE1FFF1FCC1FDD1FAA1FBB1F8A149B04EB
S1130F10EC05FD05CE05DF05A007B10748F08A18EA
S1130F209B08EC09FD09CE09DF09A00BB10B216078
S1130F301A94E1F62EF49401AF01BE01CD01000C28
S1130F40089597FB10F8169400080F93083098F052
S1130F500850232F342F452F562F672F782F892F92
S1130F60902DF4CF05949795879577956795579528
S1130F704795379527950A95AAF70F9108952A0D55
S1130F803B1D4C1D5D1D6E1D7F1D801F911F08950F
S1130F900F931F93CF93DF93869F8001879F100D3C
S1130FA0969F100D1124C8010DD0EC01009721F07B
S1130FB0A80160E070E0EFD1CE01DF91CF911F91E5
S1130FC00F9108950F931F93CF93DF938230910570
S1130FD010F482E090E0E0915F02F091600220E082
S1130FE030E0A0E0B0E0309719F1408151810281F6
S1130FF0138148175907C8F08417950769F41097A7
S113100031F012960C93129713961C9327C00093F9
S11310105F021093600222C02115310519F04217B6
S1131020530718F49A01BD01EF01DF01F801DBCF8A
S113103021153105F9F0281B390B2430310580F4D2
S11310408A819B816115710521F0FB019383828361
S113105004C09093600280935F02FE01329644C004
S1131060FE01E20FF31F81939193225031093983DA
S113107028833AC020915D0230915E02232B41F413
S1131080209162003091630030935E0220935D02F0
S113109020916000309161002115310541F42DB794
S11310A03EB74091640050916500241B350BE091DC
S11310B05D02F0915E02E217F307A0F42E1B3F0BD2
S11310C02817390778F0AC014E5F5F4F24173507B6
S11310D048F04E0F5F1F50935E0240935D02819370
S11310E0919302C0E0E0F0E0CF01DF91CF911F9136
S11310F00F910895CF93DF93009709F481C0FC0109
S1131100329713821282A0915F02B091600210970D
S113111081F420813181820F931F20915D023091EF
S11311205E022817390751F5F0935E02E0935D02E1
S113113067C0ED0120E030E0CE17DF0740F44A81BC
S11311405B819E0141155105F1F0EA01F5CFD3838E
S1131150C28340815181840F951FC817D90759F460
S113116088819981840F951F0296918380838A8157
S11311709B81938382832115310529F4F0936002C6
S1131180E0935F023DC0E901FB83EA8349915991F1
S1131190C40FD51FEC17FD0761F480819181840F82
S11311A0951F0296E90199838883828193819B83A9
S11311B08A83E0E0F0E012968D919C91139700975A
S11311C019F0FD01DC01F7CF8D919C9111979D01E0
S11311D02E5F3F4F820F931F20915D0230915E027C
S11311E02817390769F4309729F410926002109295
S11311F05F0202C013821282B0935E02A0935D026A
S1131200DF91CF910895A0E0B0E0E8E0F9E07AC37F
S1131210EC01009719F4CB01D5DEB0C0FC01E60F58
S1131220F71F9C0122503109E217F30708F4A4C008
S1131230D9010D911C91119706171707A8F00530D5
S1131240110508F497C0C80104978617970708F496
S113125091C002501109061B170B019311936D9352
S11312607C93CF0147DF86C05B01A01AB10A4C0111
S1131270800E911EA0915F02B0916002612C712CCE
S1131280E12CF12C109709F446C08D919C91119793
S1131290A815B905B1F56C0142E0C40ED11CCA14FD
S11312A0DB0478F14C018A189B08640142E0C40E07
S11312B0D11C1296BC9012971396AC91B5E0CB1644
S11312C0D10440F0B282A38391828082D9016D93CC
S11312D07C9309C00E5F1F4F800F911FF90191830A
S11312E08083EB2DFA2FE114F10431F0D70113962A
S11312F0FC93EE9312973EC0F0936002E0935F027A
S113130039C06816790608F43C017D0112960D90E7
S1131310BC91A02DB7CF80915D0290915E0288169A
S11313209906E1F466167706C8F4809160009091FE
S11313306100009741F48DB79EB7409164005091CD
S11313406500841B950BE817F907B0F4F0935E026F
S1131350E0935D02F901718360830CC0CB0132DE3E
S11313607C01009749F0A801BE010CD0CE01C2DE79
S1131370C70104C0CE0102C080E090E0CDB7DEB763
S1131380EEE0DCC2FB01DC0102C001900D92415091
S11313905040D8F70895DC0101C06D93415050408E
S11313A0E0F70895FB01DC010D900020E9F71197A7
S11313B001900D920020E1F70895AEE0B0E0E2EE76
S11313C0F9E0AAC20D891E8986E08C831A830983F9
S11313D08FEF9FE79E838D83AE01475E5F4F6F89DA
S11313E0788DCE01019608D0EF81F885E00FF11FCA
S11313F010822E96E4E0ACC2ABE0B0E0E1E0FAE0AB
S11314007DC26C017B018A01FC01178216828381F3
S113141081FFBFC1CE0101963C01F6019381F70122
S113142093FD859193FF81917F01882309F4ADC1D8
S1131430853239F493FD859193FF81917F01853243
S113144021F4B60190E0C0D1E8CF912C212C312CAD
S1131450FFE1F315D8F08B3279F038F4803279F06B
S11314608332A1F4232D20611DC08D3261F08033BD
S113147069F4232D216016C0832D8260382EE32D5C
S1131480E4603E2E2AC0F32DF8601DC037FC2DC049
S113149020ED280F2A3040F08E32B9F436FC75C1A5
S11314A0232D2064322E19C036FE06C08AE0989E91
S11314B0200D1124922E11C0EAE02E9E200D11243D
S11314C0222EF32DF0623F2E08C08C3621F4832D9A
S11314D08068382E02C0883641F4F70193FD859167
S11314E093FF81917F018111B3CF982F9F7D9554F4
S11314F0933028F40C5F1F4F9FE399830DC083360C
S113150031F0833771F0833509F055C020C0F801FC
S1131510808189830E5F1F4F88248394912C53010B
S113152012C02801F2E04F0E511CF801A080B180D6
S113153036FE03C0692D70E002C06FEF7FEFC50176
S113154038D14C018201F32DFF773F2E15C02801BD
S113155022E0420E511CF801A080B18036FE03C087
S1131560692D70E002C06FEF7FEFC50117D14C0108
S1131570F32DF0683F2E820133FC19C0822D90E0D8
S113158088169906A0F4B60180E290E01DD12A9451
S1131590F5CFF50137FC859137FE81915F01B601E6
S11315A090E012D121102A9421E0821A910881142A
S11315B0910479F7E1C0843611F0893639F5F801E0
S11315C037FE07C060817181828193810C5F1F4F58
S11315D008C060817181072E000C880B990B0E5F87
S11315E01F4FF32DFF763F2E97FF09C090958095EE
S11315F0709561957F4F8F4F9F4FF0683F2E2AE083
S113160030E0A3011DD1882E861844C0853731F4FB
S1131610232D2F7EB22E2AE030E025C0932D997F12
S1131620B92E8F36C1F018F4883579F0AEC0803702
S113163019F0883721F0A9C0E92FE061BE2EB4FE6D
S11316400DC0FB2DF460BF2E09C034FE0AC0292F43
S11316502660B22E06C028E030E005C020E130E06C
S113166002C020E132E0F801B7FE07C06081718159
S1131670828193810C5F1F4F06C06081718180E07D
S113168090E00E5F1F4FA301DBD0882E8618FB2D40
S1131690FF773F2E36FE0DC0232D2E7FA22E8914F8
S11316A058F434FE0BC032FC09C0832D8E7EA82E64
S11316B005C0B82CA32C03C0B82C01C0B92CA4FEBF
S11316C00FC0FE01E80DF11D8081803321F49A2DB5
S11316D0997EA92E09C0A2FE06C0B394B39404C097
S11316E08A2D867809F0B394A3FC10C0A0FE06C02E
S11316F0B21480F4280C922C9B180DC0B21458F428
S1131700B60180E290E060D0B394F8CFB21418F43C
S11317102B1802C0982C212CA4FE0FC0B60180E324
S113172090E052D0A2FE16C0A1FC03C088E790E06E
S113173002C088E590E0B6010CC08A2D867851F08D
S1131740A1FE02C08BE201C080E2A7FC8DE2B601DB
S113175090E03AD0891430F4B60180E390E034D0BC
S11317609A94F8CF8A94F301E80DF11D8081B601B3
S113177090E02AD08110F6CF222009F44ECEB60193
S113178080E290E021D02A94F7CFF60186819781F8
S113179002C08FEF9FEF2B96E2E1CCC0FC010590D5
S11317A0615070400110D8F7809590958E0F9F1F5F
S11317B00895FC016150704001900110D8F78095A4
S11317C090958E0F9F1F08950F931F93CF93DF93D0
S11317D0FB01238121FD03C08FEF9FEF2CC022FF6B
S11317E016C046815781248135814217530744F43A
S11317F0A081B1819D012F5F3F4F318320838C9362
S1131800268137812F5F3F4F3783268314C08B0196
S1131810EC01FB010084F185E02D0995892BE1F6AB
S1131820D80116968D919C911797019617969C93C3
S11318308E931697CE01DF91CF911F910F9108954A
S1131840FA01AA27283051F1203181F1E8946F93ED
S11318506E7F6E5F7F4F8F4F9F4FAF4FB1E03ED093
S1131860B4E03CD0670F781F891F9A1FA11D680F31
S1131870791F8A1F911DA11D6A0F711D811D911D64
S1131880A11D20D009F468943F912AE0269F1124D9
S11318903019305D3193DEF6CF010895462F47703D
S11318A0405D4193B3E00FD0C9F7F6CF462F4F7098
S11318B0405D4A3318F0495D31FD4052419302D0F6
S11318C0A9F7EACFB4E0A69597958795779567959C
S11318D0BA95C9F700976105710508959B01AC019C
S11318E00A2E06945795479537952795BA95C9F7C3
S11318F0620F731F841F951FA01D08952F923F929E
S11319004F925F926F927F928F929F92AF92BF920B
S1131910CF92DF92EF92FF920F931F93CF93DF93B7
S1131920CDB7DEB7CA1BDB0B0FB6F894DEBF0FBE14
S1131930CDBF09942A88398848885F846E847D8461
S11319408C849B84AA84B984C884DF80EE80FD8063
S11319500C811B81AA81B981CE0FD11D0FB6F894D9
S1111960DEBF0FBECDBFED010895F894FFCF9A
S113196E00006102200015000C00B00405000C00FC
S113197E2600010050C3000000000000637572725F
S10D198E656E74203D2025750A00E3
S9030000FC
