S00D000045453331312E73726563F8
S113000019C033C032C0CAC2FCC22FC084C1E0C10F
S11300102CC05CC12AC051C028C027C026C025C03E
S113002024C023C022C012C115C118C11BC120C1E4
S113003023C128C111241FBECFE5D4E0DEBFCDBF4C
S113004010E0A0E6B0E0E0E6FCE102C005900D920D
S1130050AE37B107D9F722E0AEE7B0E001C01D9298
S1130060A43AB207E1F708D3F9CDCACF97B1907F8C
S113007097B997B1892B87B9369A349BFECF84B14F
S113008095B10895A091A000B091A1009C01DFDC7E
S11300902AE096958795779567952A95D1F70895DF
S11300A03F983E9A379A86B1876086B988E893E18B
S11300B09093A1008093A00008951F920F920FB611
S11300C00F9211242F933F934F935F936F937F93DA
S11300D08F939F93EF93FF938CB1809300012091B2
S11300E0B900213069F038F0223009F442C02330DD
S11300F009F4A1C0DBC0833309F0D8C081E030C06B
S11301009091F6009230B9F028F4992349F0913097
S113011069F0CCC09430C9F098F09530E9F0C6C0CD
S11301208D3609F0C3C02093F600C0C0863609F0AE
S1130130BDC082E00EC0833609F0B8C083E009C0B8
S1130140823709F0B3C084E004C0853609F0AEC03C
S113015085E08093F600AAC0813709F0A7C082E049
S11301608093B9001092F6001092B4001092FB0034
S11301709DC09091FB009130C9F018F0923089F144
S113018095C090ED980F9A3008F090C090E0C09719
S113019044E6489F9001499F300D11243093B800E4
S11301A02093B70081E08093FB0080C090ED980F0E
S11301B09A3008F07BC04091B7005091B80090E0AD
S11301C0C0973AE0389FB001399F700D1124CB01DC
S11301D0840F951F9093B8008093B7002093FB0081
S11301E065C090ED980F9A3008F060C02091B70078
S11301F03091B80020533109A901480F511D509383
S1130200B8004093B7008091B7009091B8008091F6
S1130210B7009091B8008F3F910509F040F48091A8
S1130220B7009091B8009093F5008093F40083E0B8
S11302308093B9009BCFE091B4004E2F50E047303B
S11302405105A0F5FA01ED5EFF4F0994833671F56F
S113025081E00BC08C3651F582E007C0823731F55E
S113026083E003C0853611F584E08093B4001EC09A
S11302708737E1F485E0F9CF8D37C1F485E08093C9
S1130280B40002C08D3791F41092B9001092F600B8
S11302901092FB001092B40081E090E09093A500CE
S11302A08093A4009093B3008093B200A895FF912B
S11302B0EF919F918F917F916F915F914F913F91BA
S11302C02F910F900FBE0F901F9018951F920F92B1
S11302D00FB60F9211248F939F93AF93BF93809186
S11302E0010190910201A0910301B09104010196D2
S11302F0A11DB11D8093010190930201A0930301FC
S1130300B0930401BF91AF919F918F910F900FBE55
S11303100F901F9018951F920F920FB60F921124F1
S11303208F939F9385B5887F85BD1092AB00109203
S1130330AA001092F3001092F2001092A3001092FF
S1130340A20010920601109205018091B5009091CF
S1130350B600C298892BB9F4C1989798C09A81E0E5
S113036090E09093F1008093F00090930A018093C1
S113037009011092AD001092AC001092FA00109294
S1130380F900959816C0C19A9798C09881E090E0BA
S11303909093F1008093F0009093B1008093B000AB
S11303A01092AD001092AC001092FA001092F90075
S11303B0959A12BE83B7846083BF83B78C7F83BF53
S11303C014BC9F918F910F900FBE0F901F901895A2
S11303D01F920F920FB60F9211242F933F934F93B6
S11303E05F936F937F938F939F93AF931092B1001A
S11303F01092B00010920A011092090180919E009F
S113040090919F00C29708F446C08091AC009091EF
S1130410AD00892BC1F08091FE009091FF00892BE3
S1130420D1F520916E0030916F0040917000509191
S113043071006091720070917300809174009091CA
S11304407500A1E011C020916E0030916F004091C1
S113045070005091710060917200709173008091EE
S1130460740090917500A5E0E5DB20936E00309355
S11304706F0040937000509371006093720070930A
S11304807300809374009093750081E090E09093E2
S1130490AD008093AC008091B5009091B600892B9B
S11304A029F01092B6001092B50006C081E090E0E9
S11304B09093B6008093B5008EB5887F8EBD85B5C8
S11304C0887F85BD1DBC1CBC14BC8EB584608EBDEC
S11304D08EB58C7F8EBD85B5866085BD85B58E7FD6
S11304E085BD83B58823D9F08091B5009091B6007D
S11304F0892B59F0C298C198979AC09A81E090E0EC
S11305009093AB008093AA000AC0C29AC19A9798AC
S1130510C09881E090E09093F3008093F20081E032
S113052090E09093F1008093F0009093BD0080934D
S1130530BC009093A3008093A2001092BB00109281
S1130540BA00109208011092070183B7887F83BF15
S113055012BE109201011092020110920301109236
S1130560040180919E0090919F00C29749F0809170
S11305709E0090919F00019690939F0080939E000F
S1130580AF919F918F917F916F915F914F913F9127
S11305902F910F900FBE0F901F9018951F920F92DE
S11305A00FB60F9211248F939F9385B5887F85BDD5
S11305B08091B5009091B600C298892B21F0C19822
S11305C09798C09A03C0C19A9798C09881E090E028
S11305D09093F1008093F0001092AB001092AA0067
S11305E01092F3001092F20085B5866085BD85B542
S11305F08E7F85BD9F918F910F900FBE0F901F909E
S113060018951F920F920FB60F9211248F939F93F8
S113061085B5887F85BD15BC8091B5009091B600E5
S1130620892B79F0C298C198979AC09A81E090E09A
S11306309093F1008093F0009093AB008093AA0014
S11306400EC0C29AC19A9798C09881E090E09093A6
S1130650F1008093F0009093F3008093F20085B54D
S1130660866085BD85B58E7F85BD9F918F910F90E6
S11306700FBE0F901F901895CF93DF93CDB7DEB7C1
S113068065970FB6F894DEBF0FBECDBF1092B600CB
S11306901092B5001092AF001092AE001092FD00BF
S11306A01092FC00109201011092020110920301B9
S11306B0109204011092BB001092BA001092FA003A
S11306C01092F9001092F1001092F0001092BD0007
S11306D01092BC001092A3001092A20010929F00EE
S11306E010929E0010920601109205011092B30020
S11306F01092B2001092A5001092A40088E893E131
S11307009093A1008093A0001092A9001092A800D9
S113071087B3876087BB81B3806A81BB81B58460FE
S113072081BD81B5886081BD85B58F7B85BD85B56B
S1130730877F85BD85B58F7C85BD80E890E09093EB
S1130740F5008093F4008091F4009091F50083BD4E
S113075085B5866085BD85B58E7F85BDC298C19AF5
S11307609798C09A8EB5877E8EBD8FB58C7F8FBDCE
S11307708EB584608EBD8EB58C7F8EBD82EE94E086
S11307809BBD8ABD84EC99E099BD88BD89B7806C16
S113079089BF89B7886189BF89B7816089BF109291
S11307A0B6001092B500EED67BDC78948AE0682E11
S11307B0712C88248394912CA8958091F4009091B5
S11307C0F500892B11F413BC21C08091F4009091A1
S11307D0F5008F3F910511F48FEF17C083B5209179
S11307E0F4003091F50090E08217930718F483B574
S11307F08F5F0BC083B52091F4003091F50090E039
S11308002817390718F483B5815083BD8091B2004D
S11308109091B300892B09F442C11E821D820D817F
S11308201E8107311105E9F48091F4009091F500DF
S113083064E670E0D6D880E3860FB5D68091F400E4
S11308409091F500B301CDD8CB01B301CAD8805D36
S1130850AAD68091F4009091F500B301C2D8805DCE
S113086016C00D811E810032110599F483B564E62A
S1130870ACD8805D98D683B56AE0A7D8A6D880E3C3
S1130880890F91D683B56AE0A0D880E3890F8BD60F
S113089058C60D811E810A341105A9F480916C009B
S11308A090916D008A30910558F0B3019AD880E395
S11308B0860F79D680916C0090916D00B30191D828
S11308C0805D71D62FC00D811E810B341105B1F4EA
S11308D080916A0090916B0064E670E082D880E3B6
S11308E0860F61D680916A0090916B00B30179D82C
S11308F0CB01B30176D8805D56D63FC00D811E81F1
S11309000635110509F01DC68091680090916900B3
S1130910B30167D880E3860F46D680916800909132
S113092069005CC00D811E810336110531F580918B
S113093064009091650068EE73E053D880E3860FFD
S113094032D6809164009091650064E670E049D8E5
S1130950CB01B30146D8805D26D680916400909186
S11309606500B3013ED8CB01B3013BD8805D1BD6F3
S1130970809164009091650031C00D811E81003723
S1130980110571F48091620090916300B30129D83C
S113099080E3860F08D680916200909163001EC0A8
S11309A00D811E8101371105E9F480916000909159
S11309B0610064E670E015D880E3860FF4D5809179
S11309C0600090916100B3010CD8CB01B30109D848
S11309D0805DE9D58091600090916100B30101D8F8
S11309E0805DE1D58D819E8186579109C397C0F5BD
S11309F080919A0090919B00892BF9F00D811E81C2
S1130A00093811055CF10D811E81053911052CF49D
S1130A1080919800909199000EC00D811E81053936
S1130A20110569F00D811E81073A1105CCF48091FE
S1130A30960090919700892B89F480E214C08091EC
S1130A40980090919900892B79F08091960090916B
S1130A509700892B49F085E990E004C0C80102C0E1
S1130A608D819E81F3D89FD5A8950D811E810F5F3E
S1130A701F4F1E830D830430114009F0D0CE8AE04D
S1130A8092D55E9BFECF1092B3001092B2001092EA
S1130A900C0110920B011092F8001092F700809153
S1130AA09E0090919F00C29708F4B2C28091F0001A
S1130AB09091F100892B09F4ABC28091B000909120
S1130AC0B100892B09F4FBC083B7887F83BF22B7A9
S1130AD08091010190910201A0910301B091040160
S1130AE0BA2FA92F982F8827820F911DA11DB11D00
S1130AF06C017D0100E010E098018D87DE86EF86B1
S1130B00F88A098B1A8B2B8B3C8B80936E00D092C6
S1130B106F00E0927000F0927100109272001092D7
S1130B207300109274001092750083B7846083BFC1
S1130B3083B78C7F83BF80E099DAA4DA70939D0039
S1130B4060939C00683B0BE0700708F058C020914C
S1130B50F9003091FA0023303105D0F022E030E082
S1130B603093FA002093F900209110013091110183
S1130B7030930F0120930E01209112013091130143
S1130B80309311012093100110921301109212015D
S1130B9040918E0050918F0040FD2BC02091900019
S1130BA0309191002233310531F02F5F3F4F309364
S1130BB09100209390004F315105D8F0E091F90055
S1130BC0F091FA00EE0FFF1FE25FFE4F7183608326
S1130BD02091F9003091FA002330310550F420912E
S1130BE0F9003091FA002F5F3F4F3093FA002093C1
S1130BF0F900CA01019690938F0080938E00809132
S1130C00F9009091FA00039709F05AC180911001FC
S1130C10909111012091120130911301281B390B7D
S1130C202A30310508F04CC120910E0130910F019A
S1130C30821B930B0A9708F043C19092AD008092F7
S1130C40AC0010928F0010928E0083B7887F83BF10
S1130C5012BE10920101109202011092030110922F
S1130C600401A0906E00B0906F00C0907000D0900E
S1130C707100E0907200F090730000917400109184
S1130C80750020E03AEC4AE95BE360E070E080E064
S1130C9090E046D720937600309377004093780015
S1130CA05093790060937A0070937B0080937C006A
S1130CB090937D001092B1001092B00001C1809118
S1130CC0090190910A01892B09F4FAC083B7887F3E
S1130CD083BF22B78091010190910201A091030189
S1130CE0B0910401BA2FA92F982F8827820F911D44
S1130CF0A11DB11D6C017D0100E010E098018D87FC
S1130D00DE86EF86F88A098B1A8B2B8B3C8B8093BB
S1130D106E00D0926F00E0927000F0927100109219
S1130D20720010927300109274001092750083B7D1
S1130D30846083BF83B78C7F83BF81E097D9A2D9B6
S1130D4070939D0060939C00683B0BE0700708F073
S1130D5058C02091F9003091FA0023303105D0F0C9
S1130D6022E030E03093FA002093F9002091100142
S1130D703091110130930F0120930E012091120143
S1130D80309113013093110120931001109213013B
S1130D901092120140918E0050918F0040FD2BC0A3
S1130DA020919000309191002233310531F02F5F72
S1130DB03F4F30939100209390004F315105D8F06C
S1130DC0E091F900F091FA00EE0FFF1FE25FFE4F91
S1130DD0718360832091F9003091FA00233031054A
S1130DE050F42091F9003091FA002F5F3F4F309377
S1130DF0FA002093F900CA01019690938F00809322
S1130E008E008091F9009091FA00039709F058C080
S1130E1080911001909111012091120130911301E0
S1130E20281B390B2A30310508F04AC020910E01E5
S1130E3030910F01821B930B0A9708F041C09092E6
S1130E40AD008092AC0010928F0010928E0083B798
S1130E50887F83BF12BE109201011092020110928A
S1130E60030110920401A0906E00B0906F00C09036
S1130E707000D0907100E0907200F09073000091C7
S1130E8074001091750020E03AEC4AE95BE360E0FD
S1130E9070E080E090E044D62093760030937700B1
S1130EA0409378005093790060937A0070937B00AC
S1130EB080937C0090937D0010920A0110920901A6
S1130EC08091BC009091BD00892B09F18091AA000A
S1130ED09091AB00892BB1F081E0C8D8D3D870933E
S1130EE09D0060939C006C5D710980E090E0C5D327
S1130EF023EE37EC4CE250E474D493D37093950012
S1130F00609394001092BD001092BC0081C0809147
S1130F10A2009091A300892B09F47AC08091070163
S1130F2090910801C29709F473C08091F2009091E6
S1130F30F300892B31F48091AA009091AB00892BA6
S1130F4091F182E093D89ED8DB0170939D00609369
S1130F509C002091BA003091BB0020FD50C0E0916C
S1130F600701F0910801EE0FFF1FEE0FFF1FE4527F
S1130F70FE4FAB01BC016627772740835183628310
S1130F80738320910701309108012F5F3F4F309305
S1130F90080120930701A93BBB4088F1909293007C
S1130FA0809292002CC08091F2009091F300892BE2
S1130FB031F58091AA009091AB00892B01F582E074
S1130FC055D860D88091BA009091BB0080FD17C0BD
S1130FD0E0910701F0910801EE0FFF1FEE0FFF1FD4
S1130FE0E452FE4F10821182128213828091070113
S1130FF090910801019690930801809307018091D4
S1131000BA009091BB0001969093BB008093BA0004
S11310108091AC009091AD00892B09F49FC02CB550
S11310203DB58AB59BB52817390768F510928F002E
S113103010928E00109291001092900080911201F3
S1131040909113018430914090F48091100190911B
S113105011018430914058F480910E0190910F0158
S11310608430914020F490929B0080929A001092D8
S11310700F0110920E0110921101109210011092A2
S113108013011092120120916E0030916F00409173
S113109070005091710060917200709173008091A2
S11310A07400909175002E37344041055105610557
S11310B071058105910509F008F450C020916E0076
S11310C030916F00409170005091710060917200F6
S11310D07091730080917400909175002B3D3540A0
S11310E041055105610571058105910509F0B0F5CA
S11310F030916E0020916F0080917000809171009A
S113110080917200809173008091740080917500C9
S1131110832F922F9BBD8ABDE0916E00ED87F091E5
S11311206F00FE87C0907000CF86D0907100D88A7F
S1131130E0907200E98AF0907300FA8A00917400DA
S11311400B8B109175001C8B8D859E85880F991FC4
S113115099BD88BD9092FF008092FE0080910701A6
S113116090910801C29709F05FC1209194003091D9
S113117095003E832D83A90160E070E049875A877A
S11311806B877C87709186007983809187008A833E
S1131190909188009B83A0918900AC83B0918A00D0
S11311A0BD8BE0918B00ED8740908C0050908D00BA
S11311B004E111E018870F83FCED2F2EF1E03F2EA0
S11311C0F10180819181A281B3810097A105B105CC
S11311D0C1F0BC01CD01685C7109810991094DD24E
S11311E025EC30E240E75EE3FCD220E030E040E270
S11311F051E4F7D216D2D1016D937D938D939C93D4
S11312001397F101C080D180E280F380A701960199
S113121069857A858B859C85C9D3AF81B8856D93A3
S11312207D938D939D93B887AF83C701B60125D273
S11312307DD3F7D1F10161937193819391931F0150
S11312405B016C019B01A60160E070E080E090E02E
S1131250A980BA80CB80DC80ED88FD848201E1D452
S113126029833A834B835C836D8B7D872C01E4EA6D
S1131270CE2EE2E0DE2EC214D30409F0A1CF82E325
S1131280A82EB12CC12CD12CE12CF12C00E010E0C3
S1131290C20146D42FD20CD38FD101E0A6D41901B8
S11312A0ED80FE806701E12CF12C00E010E0980154
S11312B0CD86DE86EF86F88A098B1A8B2B8B3C8BC6
S11312C051016A017B018C012D853E8540E050E08F
S11312D060E070E080E090E0D0D3290149835A8334
S11312E06B837C8389879F8320926400309265009E
S11312F08D819E8168EE73E074D370936300609374
S11313006200909361008093600020917600309198
S11313107700409178005091790060917A00709143
S11313207B0080917C0090917D0004E043D4E8EE42
S1131330AE2EF3E0BF2EC12CD12CE12CF12C00E019
S113134010E0EED369017A01C701B60120EA3FE05B
S113135040E050E05AD33093690020936800C701FD
S1131360B601A2E09695879577956795AA95D1F7EA
S113137028EE33E040E050E048D370936700609378
S11313806600B0E4AB2E82E4B82E9FE0C92ED12CC7
S1131390E12CF12C920149815A816B817C818985F0
S11313A09F81BED320936C0030936D0028EEA22E53
S11313B033E0B32EC12C920149815A816B817C8127
S11313C089859F81ADD3AAD320936A0030936B00A3
S11313D01092BB001092BA001092080110920701FB
S11313E09092060180920501109286001092870067
S11313F0109288001092890010928A0010928B003B
S113140010928C0010928D0010927E0010927F003A
S1131410109280001092810010928200109283003A
S113142010928400109285008091A4009091A500F0
S1131430892B81F010929B0010929A0010929900CF
S11314401092980010929700109296001092A500A6
S11314501092A40020916400309165002C3105E2C3
S1131460300771F180919A0090919B00892B41F192
S11314708091050190910601892B11F143B513B5B3
S11314801983A8EEB3E0E3D2242F30E040E050E02B
S1131490BCD283E0189FB001112468507E4ECB016A
S11314A0770FAA0BBB0B82179307A407B50740F469
S11314B090929900809298009092B3008092B2002A
S11314C08091920090919300892B09F475C9F89446
S11314D085B5887F85BD8EB5887F8EBD83B7887FAF
S11314E083BF12BE1DBC1CBC14BCC298C19A979881
S11314F0C09A7FEF83E294EF715080409040E1F70F
S113150000C00000C29AC19A9798C09882E0AED5F4
S1131510B9D570939D0060939C00683B7B4060F458
S113152010929300109292008EB584608EBD8EB599
S11315308C7F8EBD78943DC9C298C19A9798C09A01
S113154038C90D811E810735110509F0EBC9809159
S113155066009091670068EE73E043D280E3860FE3
S113156022D0809166009091670064E670E039D2E1
S1131570CB01B30136D2805D16D080916600909184
S113158067002CCA8AB188618AB9579A10BC87E669
S113159089B980B5866880BD80B58F7B80BD80B5F4
S11315A08B7F80BD08955D9BFECF8CB90895BEE30B
S11315B004D008F490E80895BFE322273327A90153
S11315C0EFD058F19F5740F1B91738F1BFE3B91B79
S11315D09927B8503AF4660F771F881F991FB3955F
S11315E0D2F316C0B8504AF0232F342F452F562F6C
S11315F0672F782F8827B850BAF7B85F49F08695D7
S1131600779567955795479537952795BA95B9F77F
S11316100EF4AED088940895889460E070E0CB0115
S11316200895BED088F09F5790F0B92F9927B751ED
S1131630A0F0D1F0660F771F881F991F1AF0BA9592
S1131640C9F712C0B13081F0C5D0B1E00895C2C06D
S1131650672F782F8827B85F39F0B93FCCF3869588
S113166077956795B395D9F73EF4909580957095E5
S113167061957F4F8F4F9F4F0895E89409C097FB62
S11316803EF490958095709561957F4F8F4F9F4F55
S11316909923A9F0F92F96E9BB279395F695879599
S11316A077956795B795F111F8CFFAF4BB0F11F45C
S11316B060FF1BC06F5F7F4F8F4F9F4F16C0882303
S11316C011F096E911C0772321F09EE8872F762F39
S11316D005C0662371F096E8862F70E060E02AF07A
S11316E09A95660F771F881FDAF7880F9695879566
S11316F097F90895E894F92F96EBFF2381F01216D9
S113170013061406440B9395F6958795779567957C
S113171057954040FF23B9F71BC0992708958823A4
S113172051F49850D2F7872B762F652F542F432FDF
S1131730322F20E0B1F3121613061406440B88234B
S11317403AF09A95440F551F661F771F881FCAF7F2
S113175055234AF4440F551F11F460FF04C06F5F12
S11317607F4F8F4F9F4F880F9695879597F90895D0
S113177090958095709560955095409530952195FC
S11317803F4F4F4F5F4F6F4F7F4F8F4F9F4F089586
S113179057FD9058440F551F59F05F3F71F047951E
S11317A0880F97FB991F61F09F3F79F08795089503
S11317B0121613061406551FF2CF4695F1DF08C022
S11317C0161617061806991FF1CF8695710561053F
S11317D008940895E894BB2766277727CB0197F9E7
S11317E008950BD0D2C0C3D028F0C8D018F09523E8
S11317F009F09FC0B2C01124EECFCADFA0F3959FB9
S1131800D1F3950F50E0551F629FF001729FBB27E3
S1131810F00DB11D639FAA27F00DB11DAA1F649F8F
S11318206627B00DA11D661F829F2227B00DA11D42
S1131830621F739FB00DA11D621F839FA00D611DC8
S1131840221F749F3327A00D611D231F849F600DE9
S1131850211D822F762F6A2F11249F5750408AF022
S1131860E1F088234AF0EE0FFF1FBB1F661F771FAE
S1131870881F91505040A9F79E3F510570F059C000
S1131880AACF5F3FECF3983EDCF386957795679596
S1131890B795F795E7959F5FC1F7FE2B880F911DCC
S11318A09695879597F9089511F40EF456C047C09C
S11318B077DFD0F39923D9F3CEF39F57550B87FFE6
S11318C04FD00024A0E640EA9001805856959795A1
S11318D028F4805C660F771F881F20F026173707CF
S11318E0480730F4621B730B840B202931294A2BDF
S11318F0A69517940794202531254A2758F7660F93
S1131900771F881F20F026173707480730F4620B2B
S1131910730B840B200D311D411DA09581F7B90176
S1131920842F9158880F9695879508959B01AC0153
S113193058CF97F99F6780E870E060E008959F3F73
S113194031F0915020F4879577956795B795880F76
S1131950911D9695879597F908959FEF80EC0895CA
S113196091505040660F771F881FD2F708950024C6
S11319700A941616170618060906089500240A94F0
S113198012161306140605060895092E0394000C76
S113199011F4882352F0BB0F40F4BF2B11F460FF05
S11319A004C06F5F7F4F8F4F9F4F0895DB018F936C
S11319B09F9359D0BF91AF91A29F800D911DA39F7A
S11319C0900DB29F900D11240895991B79E004C0E5
S11319D0991F961708F0961B881F7A95C9F780956A
S11319E00895AA1BBB1B51E107C0AA1FBB1FA61762
S11319F0B70710F0A61BB70B881F991F5A95A9F7B4
S1131A0080959095BC01CD010895A1E21A2EAA1BE0
S1131A10BB1BFD010DC0AA1FBB1FEE1FFF1FA2179A
S1131A20B307E407F50720F0A21BB30BE40BF50B97
S1131A30661F771F881F991F1A9469F76095709520
S1131A40809590959B01AC01BD01CF010895A29FA3
S1131A50B001B39FC001A39F01D0B29F700D811D3F
S1131A601124911D0895F3DFA59F900DB49F900D4F
S1131A70A49F800D911D11240895DF93CF931F938C
S1131A800F939A9DF02D219FF00D8B9DF00D8A9D53
S1131A90E02DF10D039FF00D029FE00DF11D4E9D11
S1131AA0E00DF11D5E9DF00D4F9DF00D7F936F9342
S1131AB0BF92AF925F934F93D501C9DF8B01AC0105
S1131AC0D701C5DFEB01E80FF91FD6011FD02F9115
S1131AD03F91D601BCDFC60FD71FE81FF91FAF9196
S1131AE0BF9114D02F913F91B2DFC60FD71FE81FCB
S1131AF0F91FD601ACDFE60FF71F9801BE01CF0135
S1131B0011240F911F91CF91DF910895A0DF460F0B
S1131B10571FC81FD91F08F431960895689401C04F
S1131B20E8948F929F92CF93DF9305D0DF91CF916A
S1131B309F908F90089588249924F401E401B0E4DF
S1131B401B2ED4019D158E049F04E007F10738F481
S1131B50FC014B01CA01B901AD019E011694220F8B
S1131B60331F441F551F661F771F881F991F881C2A
S1131B70991CEE1FFF1FCC1FDD1FAA1FBB1F8A1459
S1131B809B04EC05FD05CE05DF05A007B10748F071
S1131B908A189B08EC09FD09CE09DF09A00BB10BDB
S1131BA021601A94E1F62EF49401AF01BE01CD0137
S1131BB0000C08950F93083090F0982F872F762FFC
S1131BC0652F542F432F322F22270850F4CF220F92
S1131BD0331F441F551F661F771F881F991F0A95BF
S1131BE0B2F70F91089597FB10F8169400080F931D
S1131BF0083098F00850232F342F452F562F672F85
S1131C00782F892F902DF4CF059497958795779504
S1131C10679557954795379527950A95AAF70F9194
S1131C2008952A0D3B1D4C1D5D1D6E1D7F1D801FDB
S1131C30911F08950024A7FD00942A0F301D401D14
S1131C40501D601D701D801D901D0895E199FECFEB
S1131C509FBB8EBBE09A99278DB30895F894FFCF6C
S1131C6015000C001C2505000C0026000100204E68
S1111C7000000000000050C30000000000004F
S9030000FC
